:1000000028040020CD000000310100003101000073
:10001000310100003101000031010000000000004A
:10002000000000000000000000000000310100009E
:10003000310100000000000031010000310100002A
:100040009905000031010000D1030000F903000010
:100050002503000079030000310100003101000098
:1000600031010000310100003101000031010000C8
:1000700031010000310100003101000031010000B8
:1000800031010000310100003101000031010000A8
:100090003101000031010000310100003101000098
:1000A0003101000031010000310100003101000088
:1000B000C1050000310100003101000031010000E4
:1000C00080B500AFC046BD4680BDC04680B582B099
:1000D00000AF124B7B60124B3B6007E03B681A1D80
:1000E0003A607A68111D796012681A603A680D4B9F
:1000F0009A42F3D30C4B3B6004E03B681A1D3A6014
:1001000000221A603A68094B9A42F6D3FFF7D8FFEB
:1001100000F0A0F8C046BD4602B080BDEC0500006E
:10012000000000200C0000200C0000202400002013
:1001300080B500AFFEE7C04680B500AF01220021C8
:10014000042000F06DF901220121042000F068F97B
:1001500001220221042000F063F90122032104207E
:1001600000F05EF901220421042000F059F9012277
:100170000521042000F054F901220621042000F09A
:100180004FF901220721042000F04AF9C046BD467C
:1001900080BDC04680B500AF01220421022000F0DE
:1001A0003FF901220521022000F03AF9012206213F
:1001B000022000F035F901220721022000F030F979
:1001C000C046BD4680BDC04680B500AFFFF7B4FF56
:1001D000FFF7E0FFC046BD4680BDC04680B582B097
:1001E00000AF00237B6002E07B6801337B607B68AB
:1001F000632BF9D9C046BD4602B080BD80B582B040
:1002000000AF04237B601DE000233B6004E000F0AE
:1002100073F83B6801333B603A682C23FF339A4202
:10022000F5D90221032000F01DF8FFF7D7FF00F0F9
:1002300063F80021022000F015F8FFF7CFFF7B687C
:10024000013B7B607B68002BDED1C046BD4602B01F
:1002500080BDC04680B500AFFFF7B6FFFFF7CEFF09
:10026000FCE7C04680B584B000AF0200FB1D1A70E9
:10027000BB1D0A1C1A70BB1D1A780F23FB181D49E1
:100280008A5C1A700E23FB1800221A7022E00F23DA
:10029000FB181B780122134007D00E23FB181B7894
:1002A0001900042000F026F906E00E23FB181B7845
:1002B0001900042000F046F90F23FB180F22BA188A
:1002C000127852081A700E23FB181A780E23FB18A6
:1002D00001321A700E23FB181B78072BD7D9FB1D90
:1002E0001B7804331900022000F004F9C046BD4613
:1002F00004B080BD0000002080B500AF04210220C2
:1003000000F020F90521022000F01CF9062102204E
:1003100000F018F90721022000F014F9C046BD468C
:1003200080BDC04680B582B000AF0F4B1B6A7B60BA
:100330000E4B1B6A3B603B680D4A13403B600A4B07
:100340007A681A62094B3A681A620A4B1B68002BDA
:1003500005D0084B1B687A68396810009847C0467A
:10036000BD4602B080BDC046004000504040005035
:10037000FF3FFFFF0C00002080B584B000AF104BA2
:100380001B6AFB600F4B1B6ABB600F4B1B6A7B60D9
:100390000B4BFA681A620B4BBA681A620A4B7A68FE
:1003A0001A620A4B1B68002B05D0084B1B68F868C3
:1003B000B9687A689847C046BD4604B080BDC0465B
:1003C00080400050C040005000410050100000200C
:1003D00080B500AF064B8022D2011A62054B1B6824
:1003E000002B02D0034B1B689847C046BD4680BD1A
:1003F000404000501400002080B500AF064B802222
:1004000012021A62054B1B68002B02D0034B1B68BB
:100410009847C046BD4680BD4040005018000020AF
:1004200080B584B000AF39601100FB1D021C1A704A
:10043000BB1D0A1C1A703B68002B02DB3B68102BAB
:1004400001DD2A4B4EE0FB1D1B789B01284A944698
:100450006344FB60BB1D1B78002B07D0BB1D1B78C2
:10046000012B03D0BB1D1B78022B28D1FB68FA6837
:10047000126839684900032088400100C9430A40D6
:100480001A60BB1D1B78012B0AD1FB68FA68126841
:10049000396849000120884001000A431A601FE0C2
:1004A000BB1D1B78022B1BD1FB68FA6812683968E8
:1004B00049000220884001000A431A6010E0BB1D79
:1004C0001B78032B0AD1FB68FA6812683968490067
:1004D0000320884001000A431A6002E0034B01E058
:1004E000C04600231800BD4604B080BD0189FFFF4F
:1004F0000040005080B584B000AF02003960FB1DA1
:100500001A703B68002B02DB3B68102B01DD0B4BA4
:1005100010E0FB1D1B789B01094A94466344FB6075
:10052000FB689B6801213A6891400A001A43FB6806
:100530009A6000231800BD4604B080BD0189FFFF0A
:100540000040005080B584B000AF02003960FB1D50
:100550001A703B68002B02DB3B68102B01DD0C4B53
:1005600011E0FB1D1B789B010A4A94466344FB6023
:10057000FB689B6801213A6891400A00D2431A4007
:10058000FB689A6000231800BD4604B080BDC046D9
:100590000189FFFF0040005080B500AFA023DB05BC
:1005A0009A6910210A439A61044B1B68002B02D000
:1005B000024B1B689847C046BD4680BD1C0000200A
:1005C00080B500AF074A136840210B431360064B08
:1005D0001B68002B02D0044B1B689847C046BD46E1
:0C05E00080BDC04600020050200000203A
:0C05EC0082EE07466A5212E6026200002E
:00000001FF
