:10000000700A0020CD000000310100003101000025
:10001000310100003101000031010000000000004A
:10002000000000000000000000000000310100009E
:10003000310100000000000031010000310100002A
:10004000DD070000310100008D040000B504000050
:10005000E10300003504000031010000310100001F
:1000600031010000310100003101000031010000C8
:10007000310100003101000039010000A901000038
:100080001902000089020000310100003101000066
:100090003101000031010000310100003101000098
:1000A0003101000031010000310100003101000088
:1000B000050800003101000031010000310100009D
:1000C00080B500AFC046BD4680BDC04680B582B099
:1000D00000AF124B7B60124B3B6007E03B681A1D80
:1000E0003A607A68111D796012681A603A680D4B9F
:1000F0009A42F3D30C4B3B6004E03B681A1D3A6014
:1001000000221A603A68094B9A42F6D3FFF7D8FFEB
:1001100000F0F2F8C046BD4602B080BD5C1300009E
:1001200000000020000600200006002070060020CD
:1001300080B500AFFEE7C04680B500AF184B1B6826
:10014000DB03DB0FDBB2012B0FD1154A13688021D3
:1001500049020B431360134B5B68002B05D0114B16
:100160005A68104B9B68180090470D4BDB6B1B05C2
:10017000DB0FDBB2012B0FD1094AD36B80210901C0
:100180000B43D363074BDB68002B05D0054BDA68C4
:10019000044B1B6918009047C046BD4680BDC04651
:1001A000000003400006002080B500AF184B1B681C
:1001B000DB03DB0FDBB2012B0FD1154A1368802163
:1001C00049020B431360134B9B69002B05D0114B65
:1001D0009A69104BDB69180090470D4BDB6B1B05D0
:1001E000DB0FDBB2012B0FD1094AD36B8021090150
:1001F0000B43D363074B1B6A002B05D0054B1A6AD0
:10020000044B5B6A18009047C046BD4680BDC0469F
:10021000004003400006002080B500AF184B1B686B
:10022000DB03DB0FDBB2012B0FD1154A13688021F2
:1002300049020B431360134BDB6A002B05D0114BB3
:10024000DA6A104B1B6B180090470D4BDB6B1B05DC
:10025000DB0FDBB2012B0FD1094AD36B80210901DF
:100260000B43D363074B5B6B002B05D0054B5A6BDD
:10027000044B9B6B18009047C046BD4680BDC046EE
:10028000000013400006002080B500AF184B1B682B
:10029000DB03DB0FDBB2012B0FD1154A1368802182
:1002A00049020B431360134B1B6C002B05D0114B01
:1002B0001A6C104B5B6C180090470D4BDB6B1B05E9
:1002C000DB0FDBB2012B0FD1094AD36B802109016F
:1002D0000B43D363074B9B6C002B05D0054B9A6CEB
:1002E000044BDB6C18009047C046BD4680BDC0463D
:1002F000004013400006002090B583B000AF0E21EF
:10030000032000F0A3F900F093FA00F0C7FC2B4B98
:100310001900002000F09EFC294B1900012000F07C
:1003200099FC284B1900022000F094FC00F0CCF955
:10033000254B1B68180000F021FF031C8B21C90509
:10034000181C00F0CBFC031C2049181C00F0E0FD39
:10035000031C181C00F0F0FE02001D4B1A60FC1D6F
:1003600000F0CEF903002370FB1D1B78012B09D18F
:1003700000F094FC174B1900002000F06BFC00F01B
:100380008FF9D5E7FB1D1B78022B09D100F086FC05
:10039000114B1900002000F05DFC00F081F9C7E767
:1003A000FB1D1B78032BC3D100F078FC0B4B19000D
:1003B000002000F04FFC00F073F9B9E7481200008C
:1003C00058120000641200006C06002000409C459A
:1003D00068060020741200008412000090120000D1
:1003E00080B582B000AF0F4B1B6A7B600E4B1B6A5F
:1003F0003B603B680D4A13403B600A4B7A681A62C7
:10040000094B3A681A620A4B1B68002B05D0084B4F
:100410001B687A68396810009847C046BD4602B02C
:1004200080BDC0460040005040400050FF3FFFFFED
:100430005006002080B584B000AF104B1B6AFB60F3
:100440000F4B1B6ABB600F4B1B6A7B600B4BFA6840
:100450001A620B4BBA681A620A4B7A681A620A4B24
:100460001B68002B05D0084B1B68F868B9687A68D0
:100470009847C046BD4604B080BDC046804000508D
:10048000C0400050004100505406002080B500AF2D
:10049000064B8022D2011A62054B1B68002B02D04A
:1004A000034B1B689847C046BD4680BD4040005086
:1004B0005806002080B500AF064B802212021A6257
:1004C000054B1B68002B02D0034B1B689847C046A6
:1004D000BD4680BD404000505C06002080B584B021
:1004E00000AF39601100FB1D021C1A70BB1D0A1CF5
:1004F0001A703B68002B02DB3B68102B01DD2A4B96
:100500004EE0FB1D1B789B01284A94466344FB6028
:10051000BB1D1B78002B07D0BB1D1B78012B03D004
:10052000BB1D1B78022B28D1FB68FA68126839685A
:100530004900032088400100C9430A401A60BB1DDE
:100540001B78012B0AD1FB68FA68126839684900E8
:100550000120884001000A431A601FE0BB1D1B7880
:10056000022B1BD1FB68FA68126839684900022027
:10057000884001000A431A6010E0BB1D1B78032B62
:100580000AD1FB68FA68126839684900032088407C
:1005900001000A431A6002E0034B01E0C046002359
:1005A0001800BD4604B080BD0189FFFF0040005027
:1005B00080B584B000AF02003960FB1D1A703B6843
:1005C000002B02DB3B68102B01DD0B4B10E0FB1D09
:1005D0001B789B01094A94466344FB60FB689B6857
:1005E00001213A6891400A001A43FB689A6000238F
:1005F0001800BD4604B080BD0189FFFF00400050D7
:1006000080B584B000AF02003960FB1D1A703B68F2
:10061000002B02DB3B68102B01DD0A4B0EE0FB1DBB
:100620001B789B01084A94466344FB60FB681A6888
:100630003B68DA4013001A00012313401800BD463E
:1006400004B080BD0189FFFF1040005080B584B028
:1006500000AF02003960FB1D1A703B68002B02DB03
:100660003B68102B01DD0C4B11E0FB1D1B789B013F
:100670000A4A94466344FB60FB689B6801213A6820
:1006800091400A00D2431A40FB689A600023180088
:10069000BD4604B080BDC0460189FFFF0040005048
:1006A00080B582B000AF00237B6002E07B6801333D
:1006B0007B607B68034A9342F8DDC046BD4602B0CA
:1006C00080BDC046E703000080B582B000AFFB1DCF
:1006D00000221A700BE0FB1D1B780322190000207A
:1006E000FFF7FCFEFB1D1A78FB1D01321A70FB1D83
:1006F0001B78052BEFD9C046BD4602B080BDC04671
:1007000080B582B000AF3B0000221A603B003B2264
:100710001A703B003D225A703B003E229A70FB1D2E
:1007200000221A7051E0FB1D1A78BB1D39008A5C4B
:100730001A707B1D00221A701BE0BB1D1B78012262
:10074000134006D07B1D1B7819000020FFF730FFF7
:1007500005E07B1D1B7819000020FFF777FFBB1D0C
:10076000BA1D127852081A707B1D1A787B1D01324F
:100770001A707B1D1B78052BDFD9FFF791FF032132
:100780000020FFF73DFF031E04D1FB1D1B78013342
:10079000DBB21FE004210020FFF732FF031E04D16B
:1007A000FB1D1B780433DBB214E005210020FFF7AA
:1007B00027FF031E04D1FB1D1B780733DBB209E0C2
:1007C000FB1D1A78FB1D01321A70FB1D1B78022BD2
:1007D000A9D900231800BD4602B080BD80B500AF86
:1007E000A023DB059A6910210A439A61044B1B6818
:1007F000002B02D0024B1B689847C046BD4680BD07
:100800006006002080B500AF074A136840210B4303
:100810001360064B1B68002B02D0044B1B689847E3
:10082000C046BD4680BDC0460002005064060020A0
:1008300080B500AF6F4A9368802109020B43936033
:10084000A023DB05DA68802109020A43DA60A023CD
:10085000DB05DA6868490A40DA60A023DB05DA6B59
:10086000802149000A43DA63A023DB05DA6B80218B
:1008700089000A43DA63A023DB05DA6B80210901D2
:100880000A43DA635D4BDB681A68802109010A4379
:100890001A605A4BDB681A68F8218A4348210A43D8
:1008A0001A60564BDB681A6804210A431A60534BDE
:1008B000DB685A68120C120403210A435A604F4B3A
:1008C000DB689A6803218A4301210A439A604B4BF3
:1008D000DB68EB221A62494BDB681A6801210A4384
:1008E0001A60C046454BDB681B68DB07DB0FDBB2D9
:1008F000012BF7D0414BDB689A6803218A439A6049
:100900003E4BDB689A6803218A4301210A439A60BF
:100910003A4BDB6881221A62384BDB681A68012186
:100920000A431A60C046354BDB681B68DB07DB0FE8
:10093000DBB2012BF7D0314BDB68A0221A622F4BC0
:10094000DB681A6801210A431A60C0462B4BDB683A
:100950001B68DB07DB0FDBB2012BF7D0274BDB6813
:100960009A6803218A439A60244BDB689A680321C2
:100970008A4301210A439A60204BDB68C0221A6235
:100980001E4BDB681A6801210A431A60C0461B4BE4
:10099000DB681B68DB07DB0FDBB2012BF7D0174BE3
:1009A000DB689A6803218A439A60144BDB689A6873
:1009B00003218A4301210A439A60104BDB68AF226E
:1009C0001A620E4BDB681A6801210A431A60C0469E
:1009D0000A4BDB681B68DB07DB0FDBB2012BF7D0B0
:1009E000064BDB689A6803218A439A60C046BD467D
:1009F00080BDC04600020050FF7FFFFFF0050020D1
:100A000080B582B000AF0200FB1D1A70144BDB688A
:100A10009A6803218A4301210A439A60104BDB68DC
:100A2000FA1D1278802149000A431A620C4BDB68D8
:100A30001A6801210A431A60C046094BDB681B682B
:100A4000DB07DB0FDBB2012BF7D0054BDB689A68C5
:100A500003218A439A60C046BD4602B080BDC046AD
:100A6000F005002080B582B000AF0200FB1D1A70B7
:100A7000BB1D0A1C1A703B4BDB689A6803218A4332
:100A800001210A439A60374BDB68FA1D1278502126
:100A900049420A43D2B21A62324BDB681A6801211A
:100AA0000A431A60C0462F4BDB681B68DB07DB0F6D
:100AB000DBB2012BF7D02B4BDB689A6803218A430A
:100AC0009A60284BDB689A6803218A4301210A4314
:100AD0009A60244BDB68BA1D12781209D2B2110059
:100AE0000F220A4010210A431A621E4BDB681A6863
:100AF00001210A431A60C0461A4BDB681B68DB07FA
:100B0000DB0FDBB2012BF7D0164BDB689A680321B1
:100B10008A439A60134BDB689A6803218A43012158
:100B20000A439A600F4BDB68BA1D12780F210A4006
:100B30001A620C4BDB681A6801210A431A60C0462E
:100B4000084BDB681B68DB07DB0FDBB2012BF7D040
:100B5000044BDB689A6803218A439A60C046BD460D
:100B600002B080BDF005002090B587B000AF040052
:100B700008001100FB1D221C1A70BB1D021C1A70FC
:100B80007B1D0A1C1A7000237B6100233B617B1DC7
:100B90001B78203B1B013B6100237B6123E0FB1D95
:100BA0001B78DB18D8B2BB1D1B78DB00DBB25B42C5
:100BB000DAB27B69DBB2D31ADBB27F3BDBB219005E
:100BC000FFF750FF3A697B69D2180F23FB182049C1
:100BD0008A5C1A700F23FB181B781800FFF710FFB0
:100BE0007B6901337B617B69072BD8DD00237B6147
:100BF00027E0FB1D1B78DB18DBB20133D8B2BB1D2D
:100C00001B78DB00DBB25B42DAB27B69DBB2D31A62
:100C1000DBB27F3BDBB21900FFF724FF3A697B6947
:100C2000D31808331A000F23FB1809498A5C1A707D
:100C30000F23FB181B781800FFF7E2FE7B690133D6
:100C40007B617B69072BD4DDC046BD4607B090BDF4
:100C50000000002080B584B000AF02003960FB1DA9
:100C60001A700023FB60FB68D9B23B685A1C3A60DB
:100C70001A78FB1D1B781800FFF776FFFB6801331D
:100C8000FB60FB680F2B04DC3B681B78002BEAD170
:100C900000E0C046C046BD4604B080BD80B582B00D
:100CA00000AF00237B6000210020FFF7DBFE002364
:100CB0007B6005E00020FFF7A3FE7B6801337B60CB
:100CC0007B68054A9342F5DD0F20FFF799FEC04689
:100CD000BD4602B080BDC0461F040000F0B55646B8
:100CE00044465F464D46F0B444024600C70F83B009
:100CF0008846650A360EBA463DD0FF2E22D0002324
:100D0000EC00802599469B46ED0425437F3E4346F3
:100D10005C025800DB0F640A000E984636D0FF28AC
:100D200030D080230021E400DB041C437F38301ADC
:100D30000190484642460843724E800030587A403F
:100D400013008746002D44D108239946063B9B4655
:100D5000DDE70122FF2000241A406402C305640A73
:100D6000D2071C431443200003B03CBC9046994674
:100D7000A246AB46F0BD002D20D104239946033B8B
:100D80009B46C4E7002C17D1022102E0002C0AD1B7
:100D90000121321A01924A4643460A435A489200B8
:100DA00082587B409746200000F030FA431F76308F
:100DB0009C4040420021BAE70321B8E7280000F038
:100DC00025FA431F9D4000237630464299469B46B4
:100DD0009DE70C239946093B9B4698E78024002217
:100DE000E403FF20B9E70024C2468B465A46534627
:100DF000022AAED0032A7DD0012A31D1012200205F
:100E00001A400024A9E70122101A1B2856DD1A40B7
:100E100000200024A1E78023DB031D424BD1802367
:100E2000DB032B435C02640A3A00FF2095E76D0167
:100E30006001854230D2019A0024013A01921B22BE
:100E40000127290064006D00002901DBA84201D8B8
:100E50002D1A3C43013A002AF3D16A1E95412C43D6
:100E600001987F300028CEDD620704D00F22224097
:100E7000042A00D00434220103D5244A01981440E6
:100E80008030FE2800DD64E70122A401640AC0B2BC
:100E90001A4062E72C00A9E72D1A1A220124CFE795
:100EA0006B02BCD500248023DB031C436402640A6C
:100EB0004246FF2051E71C42B3D1F4E72100202233
:100EC000C140101A8440621E94410C43620704D052
:100ED0000F222240042A00D00434620104D50122EA
:100EE00001201A40002438E70122A401640A1A40B4
:100EF000002032E78023DB031C436402640A52466D
:100F0000FF202AE79C120000DC120000FFFFFFF721
:100F1000F0B557464E4645464300E0B44602884683
:100F2000760A1F0EC40F002F47D0FF2F25D00023B5
:100F300080259A469946F600ED042E437F3F4346AE
:100F400042465D02D20F5B006D0A1B0E904640D0F8
:100F5000FF2B39D080220020ED00D20415437F3BC7
:100F6000FB1842465746591C62408C4607430F2FD8
:100F70005CD86F49BF00C9598F46002E45D1082360
:100F80009A46063B9946DAE7424602282DD00328C6
:100F900000D1C3E0012800D0A2E0002500260240D5
:100FA000D4B27602ED05760A2E43E40726433000DC
:100FB0001CBC90469946A246F0BD002E1AD10423CF
:100FC0009A46033B9946BAE72A00511E8A41901C73
:100FD000C6E70120002DC3D0280000F017F9431FF9
:100FE00076309D4043420020BAE70124FF2514409B
:100FF0000026D6E7300000F009F9431F9E40002389
:10100000763047429A46994699E70C239A46093B1F
:10101000994694E780260024F603FF25C1E73500B2
:101020004846B2E7350022004846AEE72904090CDD
:101030000800370C3604360C2C0C79437043674398
:101040007443060C64183619B14203D98021490251
:10105000884647440004000C310409188D01681EBD
:101060008541890E2943350CED19AD010D43290148
:1010700004D5012369081D4063460D4319007F31E3
:10108000002925DD680704D00F202840042800D05F
:101090000435280103D5274980330D401900FE2966
:1010A000A3DC0124AD016E0A1440CDB279E78020A3
:1010B000C003064207D0054205D128434602760AFE
:1010C0004446FF256DE706437602760AFF2568E76A
:1010D0000124611A1B2905DD14400025002660E764
:1010E0006346CBE72E002023CE40591A8D406B1E5D
:1010F0009D412E43730704D00F233340042B00D0AF
:101100000436730104D5012401251440002648E764
:101110000124B601760A1440002542E78026012406
:10112000F6032E437602760A1440FF2539E7C046BF
:101130001C130000FFFFFFF74302590A4300C20FD0
:101140001B0E00207E2B0EDD9D2B0DDC802000046D
:101150000143952B0BDC9620C31AD9400B00584253
:10116000002A00D118007047034BD018FBE7963BCC
:1011700099400B00F3E7C046FFFFFF7F70B50028E2
:1011800030D0C317C5185D40C40F280000F03EF8EA
:101190009E231B1A962B0DDC9622D21A95406A02CA
:1011A000520AD8B25202C005520AE407024322434F
:1011B000100070BD992B19DC9922D21A9540124A61
:1011C0002A40690704D00F210D40042D00D00432BD
:1011D000510103D50C4B1A409F231B1A9201520A4E
:1011E000D8B2DFE7002400200022DBE705222E0032
:1011F000121AB921D6402A00C91A8A40551EAA419E
:1012000035001543DBE7C046FFFFFFFB1C21012330
:101210001B04984201D3000C10391B0A984201D3D9
:10122000000A08391B09984201D30009043902A2B7
:10123000105C40187047C04604030202010101011E
:1012400000000000000000004B65797061642B37DE
:101250005365676D656E74004B656C6F6D706F6B79
:10126000205858005072616B74696B756D20544D35
:1012700000000000416E696D6173692062617269EE
:1012800073203100546F6D626F6C203200000000DB
:10129000546F6D626F6C2033000000002E0E000052
:1012A000520D0000100E0000E80D0000100E0000AE
:1012B000DC0D0000100E0000E80D0000520D0000D3
:1012C000520D0000DC0D0000E80D0000940E00003F
:1012D000940E0000940E0000160E0000520D000047
:1012E000520D0000FC0D0000E60D0000FC0D00009A
:1012F000DC0D0000FC0D0000E60D0000520D0000AA
:10130000520D0000DC0D0000E60D0000940E000000
:10131000940E0000940E0000A00E00002C1000009F
:101320008A0F00008A0F0000880F00001E100000C6
:101330001E10000014100000880F00001E10000096
:10134000141000001E100000880F00002410000080
:0C1350002410000024100000AE1000006B
:10135C000000000000000000000000000000000081
:10136C00F000000000000000CF00000000000000B2
:10137C000000000000000000F00000F00000000081
:10138C00000000C030C03000C839CF390F0901004F
:10139C00E01010F810106000304142FF4244380059
:1013AC00C02010E020E0180001C2310C73884438D2
:1013BC0000E01010E00000007885828D70A29E4243
:1013CC000000000000000000F00000000000000021
:1013DC00C0300804000000001F6080000000000006
:1013EC00040830C0000000000080601F00000000F6
:1013FC0000000000000000004428FE28440000000B
:10140C000000008000000000080808FF0808080021
:10141C000000000000000000B070000000000000A0
:10142C0000000000000000008080808000000000B0
:10143C000000000000000000C0C000000000000020
:10144C000000807000000000E01C030000000000A1
:10145C00C020101020C000003F408080403F0000A2
:10146C0020F000000000000080FF80000000000061
:10147C006010101020C00000C0A0908886C1000031
:10148C0020101010E000000080808283443800009F
:10149C0000008060F000000018161110FF10000012
:1014AC0000F010101010000080818181423C00007F
:1014BC0080402010101000003F428181423C00000F
:1014CC0070101010907000000000E01C0300000071
:1014DC00C020101020C00000384582824538000022
:1014EC00C020101020C0000083848848241F0000F6
:1014FC000000000000000000C3C30000000000005A
:10150C00C0C0000000000000B0700000000000002F
:10151C000000000000000000102828444482000055
:10152C00000000000000000088888888888888886F
:10153C000000000000000000824444282810000035
:10154C00E010101020C000000000D80601000000C0
:10155C00C02010909010A0C03F408F90908F505F93
:10156C00000080708000000080F08F088FF08000F9
:10157C0010F010101020C00080FF828282453800CD
:10158C00C0201010102070003F40808080804000F0
:10159C0010F010101060800080FF808080601F00B1
:1015AC0010F010101010700080FF82828287E00013
:1015BC0010F010101010700080FF82020207000063
:1015CC00C0201010207000003F408080847C0400FC
:1015DC0010F0100010F0100080FF820282FF8000DB
:1015EC0010F010000000000080FF800000000000E0
:1015FC00000010F0100000004080807F0000000010
:10160C0010F010805030100080FF830CB0C08000B0
:10161C0010F010000000000080FF808080C02000CF
:10162C0010F0800080F0100080FF833C83FF80006E
:10163C0010F0C00010F0100080FF800F30FF000091
:10164C0080601010106080001F60808080601F0020
:10165C0010F010101020C00080FF84040402010060
:10166C00E01804040418E000071820206098870094
:10167C0010F010101020C00080FF840C34C28100C8
:10168C00C020101010207000E0418282844830008D
:10169C00301010F010103000000080FF80000000AF
:1016AC0010F0100010F01000007F8080807F000090
:1016BC0010F0100010F0100000011EE01E010000E0
:1016CC0010F010C010F01000000FF00FF00F000021
:1016DC00107090009070100080E0990699E08000E6
:1016EC001070900090701000000083FC83000000CC
:1016FC007010101010D03000C0B088868180E000CF
:10170C00FC04040000000000FF80800000000000CA
:10171C00708000000000000000031CE000000000CE
:10172C000404FC00000000008080FF0000000000AA
:10173C0000000000000000008060180618608000A7
:10174C00000000000000000080808080808080808D
:10175C00000000000000000020604080000000003D
:10176C00000000000000000066918949FE80000026
:10177C0010F0000000000000007F8181423C00005E
:10178C0000000000000000003C428181814200000A
:10179C0000000010F00000003C4281817F800000BE
:1017AC0000000000000000003C4A89898A4C0000BF
:1017BC000000E010102000000181FF8101000000FA
:1017CC00804040408040000053ACA4A4A3400000E3
:1017DC0010F000000000000080FF0101FE800000FE
:1017EC0000B000000000000081FF8000000000003D
:1017FC00000080CC000000004080807F00000000D2
:10180C0010F000000000000080FF9825C38100004C
:10181C0010F000000000000080FF800000000000BD
:10182C00000000000000000081FE01FE01FE8000AF
:10183C00000000000000000081FE0101FE8000009D
:10184C0000000000000000003C428181423C00008E
:10185C00408040408000000080FFA020100F00005E
:10186C0000804040804000000F1020A0FF8000004E
:10187C00000000000000000081FF82010100000058
:10188C000000000000000000E6498991926700000A
:10189C000000C0000000000001017F8181400000B9
:1018AC000000000000000000017F80817F800000AC
:1018BC000000000000000000010739C039070100DA
:1018CC000000000000000000011FE11CE11F0100EE
:1018DC00000000000000000081E71818E7810000FC
:1018EC0040C0400040C040008081463806010000E6
:1018FC000000000000000000C3A1918985C3000016
:10190C0000F0080000000000027D800000000000D4
:10191C00F000000000000000FF00000000000000CC
:10192C0008F0000000000000807D020000000000B4
:10193C000000000000000000C0202060C08080601B
:10194C0000000340004013400000134000401340CF
:00000001FF
