:10000000A0120020B5010000190200001902000032
:10001000190200001902000019020000000000008F
:1000200000000000000000000000000019020000B5
:10003000190200000000000019020000190200006F
:100040006516000019020000690C0000910C000008
:10005000BD0B0000110C0000190200001902000085
:100060001902000019020000190200001902000024
:100070001902000019020000E10200005103000013
:10008000C103000031040000190200001902000041
:1000900019020000190200001902000019020000F4
:1000A00019020000190200001902000019020000E4
:1000B000A117000019020000190200001902000037
:1000C00080B584B000AF304B1B695B075B0FDBB2C0
:1000D000BB60BB68052B01D90423BB60BB68022B46
:1000E00005D02A4BBA689200D358FB602CE0264B0F
:1000F0001B6A1B049B0FDBB27B607B68012B02D960
:100100007B68013B7B60204B1B6A1B03DB0FDBB270
:10011000002B01D01E4A00E01E4A1B4B1B6ADB0568
:10012000DB0D9BB202335A43174B1B6A9B04DB0E59
:10013000DBB202331900100001F0BEFD03001A000B
:100140007B68DA401300FB600F4B9B691B071B0F9A
:10015000DBB201331900F86801F0AEFD03001A00AC
:100160000D4B1A600C4B1B680C4A944663440C49B7
:10017000180001F0A1FD03001A000A4B1A60C046E6
:10018000BD4604B080BDC0460002005008000020FB
:1001900000805101001BB7000000002020A10700D3
:1001A00040420F000400002080B500AFC046BD46AD
:1001B00080BDC04680B582B000AF124B7B60124B51
:1001C0003B6007E03B681A1D3A607A68111D796050
:1001D00012681A603A680D4B9A42F3D30C4B3B609D
:1001E00004E03B681A1D3A6000221A603A68094B25
:1001F0009A42F6D3FFF7D8FF00F01AFCC046BD467E
:1002000002B080BDFC240000000000202C0A002069
:100210002C0A0020A00E002080B500AFFEE7C046EB
:1002200080B500AF00220021002000F045FD002233
:100230000121002000F040FD00220221002000F0FA
:100240003BFD00220321002000F036FD00220421A6
:10025000002000F031FD00220521002000F02CFDDF
:10026000C046BD4680BDC04680B500AF01220E210C
:10027000032000F021FDC046BD4680BD80B582B0A0
:1002800000AFFB1D03221A700E2000F0F7FDFB1DCE
:10029000187820230022012100F002F9FB1D1B78B1
:1002A0000021180000F048FBFB1D1B7800211800FE
:1002B00000F064FBFB1D1B780121180000F012FB0D
:1002C000C046BD4602B080BD80B500AFFFF7A8FFB5
:1002D000FFF7CAFFFFF7D2FFC046BD4680BDC0464C
:1002E00080B500AF184B1B68DB03DB0FDBB2012BC3
:1002F0000FD1154A1368802149020B431360134B39
:100300005B68002B05D0114B5A68104B9B68180096
:1003100090470D4BDB6B1B05DB0FDBB2012B0FD1C5
:10032000094AD36B802109010B43D363074BDB6878
:10033000002B05D0054BDA68044B1B691800904769
:10034000C046BD4680BDC046000003402C0A0020C8
:1003500080B500AF184B1B68DB03DB0FDBB2012B52
:100360000FD1154A1368802149020B431360134BC8
:100370009B69002B05D0114B9A69104BDB69180063
:1003800090470D4BDB6B1B05DB0FDBB2012B0FD155
:10039000094AD36B802109010B43D363074B1B6AC6
:1003A000002B05D0054B1A6A044B5B6A1800904776
:1003B000C046BD4680BDC046004003402C0A002018
:1003C00080B500AF184B1B68DB03DB0FDBB2012BE2
:1003D0000FD1154A1368802149020B431360134B58
:1003E000DB6A002B05D0114BDA6A104B1B6B18002F
:1003F00090470D4BDB6B1B05DB0FDBB2012B0FD1E5
:10040000094AD36B802109010B43D363074B5B6B14
:10041000002B05D0054B5A6B044B9B6B1800904783
:10042000C046BD4680BDC046000013402C0A0020D7
:1004300080B500AF184B1B68DB03DB0FDBB2012B71
:100440000FD1154A1368802149020B431360134BE7
:100450001B6C002B05D0114B1A6C104B5B6C1800F9
:1004600090470D4BDB6B1B05DB0FDBB2012B0FD174
:10047000094AD36B802109010B43D363074B9B6C63
:10048000002B05D0054B9A6C044BDB6C1800904791
:10049000C046BD4680BDC046004013402C0A002027
:1004A00090B585B000AF0400080011003B60FB1D53
:1004B000221C1A70BB1D021C1A707B1D0A1C1A70AC
:1004C000FB1D1A78D94913009B009B189B005B5CAD
:1004D000002B01D0D64BFFE13B68002B02DD3B68CF
:1004E000202B01DDD34BF7E1FB1D1B78002B13D133
:1004F000D14A9368802149010B439360A023DB0517
:10050000DA68802149010A43DA60A023DB05DA6852
:10051000CA490A40DA6042E0FB1D1B78012B13D167
:10052000C54A9368802189010B439360A023DB05B2
:10053000DA68802189010A43DA60A023DB05DA68E2
:10054000BF490A40DA602AE0FB1D1B78022B13D159
:10055000B94A93688021C9010B439360A023DB054E
:10056000DA688021C9010A43DA60A023DB05DA6872
:10057000B4490A40DA6012E0AF4A93688021090268
:100580000B439360A023DB05DA68802109020A434C
:10059000DA60A023DB05DA68AB490A40DA60802321
:1005A0005B02FB6006E0FB685A1EFA60002B01DC70
:1005B000A64B91E1FB1D1A78A54B9200D3581B68FE
:1005C000DB07DB0FDBB2012BEDD0FB1D1A7897495F
:1005D00013009B009B189B0001225A54FB1D1A78A4
:1005E000924913009B009B189B00CB1804330022F8
:1005F0001A60FB1D1A788D4913009B009B189B0005
:10060000CB18083300221A60FB1D1A7887491300A3
:100610009B009B189B00CB180C3300221A60FB1D1B
:100620001A78824913009B009B189B00CB1810334B
:1006300000221A603B68202B01D100233B60FB1D88
:100640001A78834B9200D3583A68D2B2111C1F22F9
:100650000A40D1B21A681F200140C900F820824325
:100660000A431A60BB1D1B78012B0AD1FB1D1A78A7
:10067000774B9200D3581A688021C9020A431A6046
:1006800008E0FB1D1A78724B9200D3581A68714922
:100690000A401A60FB1D1A786D4B9200D3589A6875
:1006A00008210A439A607B1D1B78002B1BD1FB1D80
:1006B0001A78674B9200D3581A6867490A401A6043
:1006C000FB1D1A78624B9200D3581A6804218A43A2
:1006D0001A60FB1D1A785E4B9200D3581A680221EB
:1006E0008A431A60F7E07B1D1B78012B1BD1FB1D91
:1006F0001A78574B9200D3581A6857490A401A6023
:10070000FB1D1A78524B9200D3581A6804210A43F1
:100710001A60FB1D1A784E4B9200D3581A680221BA
:100720008A431A60D7E07B1D1B78022B1BD1FB1D6F
:100730001A78474B9200D3581A6847490A401A6002
:10074000FB1D1A78424B9200D3581A6804218A4341
:100750001A60FB1D1A783E4B9200D3581A6802218A
:100760000A431A60B7E07B1D1B78032B1BD1FB1DCE
:100770001A78374B9200D3581A6837490A401A60E2
:10078000FB1D1A78324B9200D3581A6804210A4391
:100790001A60FB1D1A782E4B9200D3581A6802215A
:1007A0000A431A6097E07B1D1B78042B1CD1FB1DAC
:1007B0001A78274B9200D3581A68802109010A43FE
:1007C0001A60FB1D1A78224B9200D3581A68042134
:1007D0008A431A60FB1D1A781D4B9200D3581A6881
:1007E00002218A431A6076E07B1D1B78052B35D1E8
:1007F000FB1D1A78164B9200D3581A688021090104
:100800000A431A60FB1D1A78114B9200D3581A68DC
:1008100004210A431A60FB1D1A780D4B9200D3582D
:100820001A6802218A431A6055E0C0462C0A00204B
:100830000394FFFF0294FFFF00020050FFEFFFFF51
:10084000FFDFFFFFFFBFFFFFFF7FFFFF0494FFFFFE
:100850001C000020FFFFFBFFFFF7FFFF7B1D1B7845
:10086000062B1CD1FB1D1A781D4B9200D3581A6819
:10087000802109010A431A60FB1D1A78184B920067
:10088000D3581A6804218A431A60FB1D1A78144B46
:100890009200D3581A6802210A431A601BE0FB1D1C
:1008A0001A780F4B9200D3581A68802109010A4325
:1008B0001A60FB1D1A780A4B9200D3581A6804215B
:1008C0000A431A60FB1D1A78054B9200D3581A6828
:1008D00002210A431A6000231800BD4605B090BDEE
:1008E0001C00002080B582B000AF0200FB1D1A7012
:1008F000BB1D0A1C1A70BB1D1B78002B0AD1FB1DE7
:100900001A780B4B9200D3581A688021C9000A4309
:100910001A6008E0FB1D1A78054B9200D3581A683C
:1009200004490A401A60C046BD4602B080BDC046B8
:100930001C000020FFFBFFFF80B582B000AF02006B
:10094000FB1D1A70BB1D0A1C1A70FB1D1A780A4B7E
:100950009200D358BA1D127801210A40D1B29A6888
:10096000012001400901102082430A439A60C046D9
:10097000BD4602B080BDC0461C00002080B582B0DC
:1009800000AF0200FB1D1A70BB1D0A1C1A70FB1D74
:100990001A780A4B9200D358BA1D127801210A40E6
:1009A000D1B29A68012001408900042082430A43A1
:1009B0009A60C046BD4602B080BDC0461C00002003
:1009C00080B586B000AF78600823FB608023BB60F1
:1009D00000237B6100233B6100237B611FE0002338
:1009E0003B6115E03B698122D21A7B691100180036
:1009F00001F026F87B69DA013B69D3181A007B689D
:100A00009B181B78180000F0E9FF3B6901333B613C
:100A10003A69BB689A42E5DB7B6901337B617A699D
:100A2000FB689A42DBDBC046BD4606B080BDC046CF
:100A300090B583B000AF584B59221A60564B16221E
:100A40001A60554B88221A600121002000F04AFEEE
:100A5000524B180000F0BAFE002000F017FE4E4B7B
:100A600000221A60FFF730FC00F0D0FE01F004F91C
:100A70000E21032000F0D8F900F06AFD00F068FDB7
:100A8000474B1B68180001F0F3FB031C8B21C905C1
:100A9000181C01F09DF9031C4249181C01F0B2FA20
:100AA000031C181C01F0C2FB02003F4B1A600C2112
:100AB000002000F06BF97C1D00F066FD0300237040
:100AC0007B1D1B78012B09D101F0D6F8374B19009B
:100AD000002001F0ADF800F027FDCFE77B1D1B786B
:100AE000022B06D101F0C8F80C21002000F09CF97F
:100AF000C4E77B1D1B78092BC0D101F0BDF8FB1D9D
:100B000000221A7039E0BB1D00221A702BE0BB1DB9
:100B10001B783F2B10D8BB1D1A78FB1D1B78DB01FF
:100B2000D318BA1D1178FA1D127892018A1820493B
:100B3000895C204AD15411E0BB1D1A78FB1D1B783B
:100B4000DB01D318BA1D1278403A1100FA1D127851
:100B500092018A181849895C164AD154BB1D1A782B
:100B6000BB1D01321A70BB1D1B785BB2002BCEDAA5
:100B7000FB1D1A78FB1D01321A70FB1D1B78072B19
:100B8000C1D90C4B1800FFF71BFF0A4B1800FFF7E9
:100B900017FF00F0C9FC71E700010050204E000073
:100BA0009C0A002000409C45940A00203C23000041
:100BB0002C000020A00A00202C02002080B582B06A
:100BC00000AF0F4B1B6A7B600E4B1B6A3B603B68A0
:100BD0000D4A13403B600A4B7A681A62094B3A6827
:100BE0001A620A4B1B68002B05D0084B1B687A68F9
:100BF000396810009847C046BD4602B080BDC04667
:100C00000040005040400050FF3FFFFF7C0A0020A2
:100C100080B584B000AF104B1B6AFB600F4B1B6AA2
:100C2000BB600F4B1B6A7B600B4BFA681A620B4B65
:100C3000BA681A620A4B7A681A620A4B1B68002B60
:100C400005D0084B1B68F868B9687A689847C046B1
:100C5000BD4604B080BDC04680400050C04000503A
:100C600000410050800A002080B500AF064B802272
:100C7000D2011A62054B1B68002B02D0034B1B6884
:100C80009847C046BD4680BD40400050840A0020C1
:100C900080B500AF064B802212021A62054B1B681A
:100CA000002B02D0034B1B689847C046BD4680BD51
:100CB00040400050880A002080B584B000AF396001
:100CC0001100FB1D021C1A70BB1D0A1C1A703B6828
:100CD000002B02DB3B68102B01DD2A4B4EE0FB1D95
:100CE0001B789B01284A94466344FB60BB1D1B781C
:100CF000002B07D0BB1D1B78012B03D0BB1D1B781D
:100D0000022B28D1FB68FA68126839684900032071
:100D100088400100C9430A401A60BB1D1B78012BA3
:100D20000AD1FB68FA6812683968490001208840D6
:100D300001000A431A601FE0BB1D1B78022B1BD168
:100D4000FB68FA681268396849000220884001008F
:100D50000A431A6010E0BB1D1B78032B0AD1FB6805
:100D6000FA681268396849000320884001000A4384
:100D70001A6002E0034B01E0C04600231800BD46A4
:100D800004B080BD0189FFFF0040005080B584B0F1
:100D900000AF02003960FB1D1A703B68002B02DBBC
:100DA0003B68102B01DD0B4B10E0FB1D1B789B01FA
:100DB000094A94466344FB60FB689B6801213A68DA
:100DC00091400A001A43FB689A6000231800BD4650
:100DD00004B080BD0189FFFF0040005080B584B0A1
:100DE00000AF02003960FB1D1A703B68002B02DB6C
:100DF0003B68102B01DD0A4B0EE0FB1D1B789B01AD
:100E0000084A94466344FB60FB681A683B68DA4012
:100E100013001A00012313401800BD4604B080BD22
:100E20000189FFFF1040005080B584B000AF020080
:100E30003960FB1D1A703B68002B02DB3B68102BEE
:100E400001DD0C4B11E0FB1D1B789B010A4A944607
:100E50006344FB60FB689B6801213A6891400A008B
:100E6000D2431A40FB689A6000231800BD4604B0C4
:100E700080BDC0460189FFFF0040005080B584B0AE
:100E800000AF0200FB1D1A70FB1D1B783D2B00D923
:100E900025E39A00DA4BD3181B689F46D94B0022F2
:100EA0001A60D94B00221A60D84B00221A60D84B26
:100EB00000221A60D74B00221A6013E3D24BD24AA9
:100EC0001268802149010A431A60D34BD24A126842
:100ED0008021C9000A431A60CF4BCF4A1268CF491C
:100EE0000A401A60FEE2C74BC64A1268C021890058
:100EF0000A431A60F6E2C34BC24A1268C0210901D4
:100F00000A431A60C44BC44A1268C4490A401A60B2
:100F1000E8E2BE4BBD4A12680F210A431A60B94B82
:100F2000B84A1268802109020A431A60BA4BBA4AC9
:100F30001268F82189000A431A60D3E2B44BB44A1C
:100F40001268C0210A431A60CCE2FB1D1B78062BF5
:100F500004D10F23FB1806221A7003E00F23FB189D
:100F60000E221A70A94BA94A12680F217918097824
:100F70000320884001000A431A60A74BA64A126862
:100F8000A6490A401A60ADE2A04BA04A12680F21A0
:100F90000A431A60A04BA04A1268A1490A401A608D
:100FA000A0E2994B984A12688021C9000A431A604E
:100FB000994B994A126801210A431A6092E2934BB5
:100FC000924A126830210A431A608BE28F4B8F4A93
:100FD0001268F02109010A431A608F4B8E4A126889
:100FE0008E490A401A607DE2874B874A1268802149
:100FF00089000A431A60884B874A126802210A4313
:101000001A606FE2814B814A1268C02189010A434C
:101010001A6067E27E4B7E4A12680F210A431A600B
:1010200060E2784B774A126880210A431A607A4B53
:10103000794A126804210A431A60774B764A12688B
:1010400076490A401A604DE2714B714A12683021AC
:101050000A431A6046E26E4B6D4A1268F02109019C
:101060000A431A603EE2684B674A12688021C90150
:101070000A431A60684B684A126808210A431A60DA
:1010800030E2634B624A1268C02189010A431A6048
:1010900028E25E4B5D4A12680F210A431A6021E282
:1010A0005B4B5B4A126802210A431A601AE2584BF2
:1010B000574A126804210A431A6013E2564B564AF3
:1010C000126804218A431A60534B534A12685349E9
:1010D0000A401A604B4B4B4A1268F91D09781739C0
:1010E0000120884001000A431A60FBE14A4B4A4A4A
:1010F000126808218A431A60434B434A1268F91D5B
:10110000097811390120884001000A431A60E9E199
:101110003D4B3D4A1268802149000A431A60E1E1D3
:10112000394B394A1268802189000A431A603A4BC8
:10113000394A126802218A431A60D3E1324B324A9B
:1011400012688021C9000A431A60334B324A126880
:1011500001218A431A60C5E12B4B2B4A126880217A
:1011600009010A431A602C4B2B4A126810218A434A
:101170001A60B7E1244B244A1268802109020A430D
:101180001A60254B244A1268802149040A431A60D8
:10119000A8E1204B1F4A126820210A431A601E4B07
:1011A0001D4A1268802189040A431A609AE1164B8D
:1011B000154A126804210A431A60174B164A12682E
:1011C0008021C9040A431A608CE10F4B0E4A126851
:1011D00008210A431A60104B0F4A12688021090542
:1011E0000A431A607EE1FB1D1B78282B1AD9FB1DD0
:1011F0001B782B2B16D80F23FB1800221A7015E032
:1012000044230000300000503400005038000050EB
:101210003C0000504000005050000050FFF7FFFF1E
:101220001FFEFFFF0F23FB1804221A70FB1D1B7803
:10123000292B03D0FB1D1B782C2B11D1AC4BAC4AB6
:1012400012680F21791809780F20884001000A439D
:101250001A60A84BA74A1268A7490A401A602FE0F3
:10126000FB1D1B782A2B03D0FB1D1B782D2B0BD1CC
:101270009F4B9F4A12680F217918097803208840F4
:1012800001000A431A601BE0FB1D1B782B2B04D0C6
:10129000FB1D1B782E2B00D023E1954B944A12683E
:1012A0000F217918097802310320884001000A4390
:1012B0001A60904B8F4A12688F490A401A6010E1F9
:1012C0000FE18E4B8D4A1268C02109020A431A6051
:1012D00008E1FB1D1B78302B07D1894B884A126827
:1012E000C02189010A431A600AE0854B844A1268CA
:1012F000F91D097828390120884001000A431A6045
:101300007C4B7C4A12687C490A401A60EAE0FB1D6B
:101310001B78312B13D17A4B794A1268C02109020C
:101320000A431A60734B734A126876490A401A607E
:10133000704B704A126870490A401A60D2E0704BD4
:101340006F4A1268F91D0978283901208840010088
:101350000A431A60FB1D1B78362B06D1654B654A84
:10136000126865490A401A60BCE0624B614A126823
:1013700064490A401A60B5E0FB1D1B78322B13D17B
:101380005B4B5B4A1268802109010A431A60594B82
:10139000584A126810210A431A605B4B5A4A126875
:1013A00020210A431A609DE0FB1D1B78382B0DD1CC
:1013B0004F4B4F4A1268802109010A431A604D4B76
:1013C0004C4A126810210A431A608BE04E4B4E4A79
:1013D000126820210A431A6084E0FB1D1B78332B1E
:1013E00006D1494B484A126803210A431A6079E042
:1013F000FB1D1B783A2B06D1434B434A126801214F
:101400000A431A606EE0404B3F4A126802210A43C9
:101410001A6067E0364B364A12680C210A431A609C
:10142000344B344A1268C021C9010A431A60344B54
:10143000334A126835490A431A602E4B2D4A126806
:10144000FF2109040A431A60FB1D1B783C2B17D1AE
:10145000274B274A12680C218A431A60254B254ADC
:1014600012682B490A401A60254B254A12682949FF
:101470000A401A601F4B1F4A126827490A401A6027
:101480001C4B1C4A1268C02149010A431A60234BB5
:10149000224A1268802149000A431A60184B184AF0
:1014A0001268C02109010A431A60114B104A1268E0
:1014B000C0210A431A60124B114A1268C0210A4324
:1014C0001A60164B154A126815490A431A60084BF0
:1014D000074A1268C02189010A431A6002E0114BD1
:1014E00001E0C04600231800BD4604B080BDC046E0
:1014F0003400005050000050FFF7FFFF3C00005048
:1015000030000050FFFDFFFF400000503E70000023
:10151000FF9FFFFFC18FFFFFFFFF00FF380000505C
:10152000C0C000000189FFFF80B582B000AF00237A
:101530007B6002E07B6801337B607B68034A9342F7
:10154000F8DDC046BD4602B080BDC046E7030000DE
:1015500080B582B000AFFB1D00221A700BE0FB1DAE
:101560001B78032219000020FFF7A6FBFB1D1A7849
:10157000FB1D01321A70FB1D1B78052BEFD9C046ED
:10158000BD4602B080BDC04680B582B000AF3B0012
:1015900000221A603B003B221A703B003D225A7029
:1015A0003B003E229A70FB1D00221A7051E0FB1D89
:1015B0001A78BB1D39008A5C1A707B1D00221A70D4
:1015C0001BE0BB1D1B780122134006D07B1D1B783E
:1015D00019000020FFF7DAFB05E07B1D1B781900DE
:1015E0000020FFF721FCBB1DBA1D127852081A70AB
:1015F0007B1D1A787B1D01321A707B1D1B78052B11
:10160000DFD9FFF791FF03210020FFF7E7FB031E5F
:1016100004D1FB1D1B780133DBB21FE00421002045
:10162000FFF7DCFB031E04D1FB1D1B780433DBB288
:1016300014E005210020FFF7D1FB031E04D1FB1DA0
:101640001B780733DBB209E0FB1D1A78FB1D013262
:101650001A70FB1D1B78022BA9D900231800BD4668
:1016600002B080BD80B500AFA023DB059A691021D0
:101670000A439A61044B1B68002B02D0024B1B6883
:101680009847C046BD4680BD8C0A002080B582B018
:1016900000AF0200FB1D1A70FB1D1B78072B07D83B
:1016A000FB1D1B78032B05D9FB1D1B78062B01D8CE
:1016B0000A4B0FE00A4AFB1D1B7807210B40D9B2E9
:1016C000136907200140072083430B431361FEF792
:1016D000F7FC00231800BD4602B080BD0396FFFF53
:1016E0000002005080B582B000AF02003960FB1DDF
:1016F0001A70FB1D1B78012B17D002DC002B05D0C4
:1017000043E0022B21D0032B2FD03EE0224A3B683E
:10171000DBB2191C01230B40D9B213680120014030
:10172000012083430B43136031E01B4A3B68DBB26B
:10173000191C01230B40D9B2136801200140490054
:10174000022083430B43136021E0134A3B68DBB262
:10175000191C01230B40D9B21368012001408900F4
:10176000042083430B43136011E00B4A3B68DBB258
:10177000191C01230B40D9B2136801200140C90094
:10178000082083430B43136001E0044B00E0002377
:101790001800BD4602B080BD000200500396FFFF56
:1017A00080B500AF074A136840210B431360064B16
:1017B0001B68002B02D0044B1B689847C046BD46EF
:1017C00080BDC04600020050900A002080B582B063
:1017D00000AF78600B4A0C4B1B6879684B43536031
:1017E000084B00229A60074B05221A60C046054B41
:1017F0001A6880235B021340F9D0C046BD4602B090
:1018000080BDC04610E000E00400002080B500AFBD
:101810006F4A9368802109020B439360A023DB0584
:10182000DA68802109020A43DA60A023DB05DA685E
:1018300068490A40DA60A023DB05DA6B80214900A1
:101840000A43DA63A023DB05DA6B802189000A43AF
:10185000DA63A023DB05DA6B802109010A43DA632E
:101860005D4BDB681A68802109010A431A605A4BF4
:10187000DB681A68F8218A4348210A431A60564BEC
:10188000DB681A6804210A431A60534BDB685A6804
:10189000120C120403210A435A604F4BDB689A680A
:1018A00003218A4301210A439A604B4BDB68EB22F8
:1018B0001A62494BDB681A6801210A431A60C04664
:1018C000454BDB681B68DB07DB0FDBB2012BF7D076
:1018D000414BDB689A6803218A439A603E4BDB6880
:1018E0009A6803218A4301210A439A603A4BDB68D4
:1018F00081221A62384BDB681A6801210A431A6098
:10190000C046354BDB681B68DB07DB0FDBB2012B06
:10191000F7D0314BDB68A0221A622F4BDB681A68C4
:1019200001210A431A60C0462B4BDB681B68DB07AA
:10193000DB0FDBB2012BF7D0274BDB689A68032162
:101940008A439A60244BDB689A6803218A43012109
:101950000A439A60204BDB68C0221A621E4BDB6888
:101960001A6801210A431A60C0461B4BDB681B68DA
:10197000DB07DB0FDBB2012BF7D0174BDB689A6874
:1019800003218A439A60144BDB689A6803218A43D7
:1019900001210A439A60104BDB68AF221A620E4B9A
:1019A000DB681A6801210A431A60C0460A4BDB68EB
:1019B0001B68DB07DB0FDBB2012BF7D0064BDB68C4
:1019C0009A6803218A439A60C046BD4680BDC046DE
:1019D00000020050FF7FFFFF1C0A002080B582B08C
:1019E00000AF0200FB1D1A70144BDB689A680321DC
:1019F0008A4301210A439A60104BDB68FA1D127872
:101A0000802149000A431A620C4BDB681A680121E5
:101A10000A431A60C046094BDB681B68DB07DB0F13
:101A2000DBB2012BF7D0054BDB689A6803218A43B0
:101A30009A60C046BD4602B080BDC0461C0A002068
:101A400080B582B000AF0200FB1D1A70BB1D0A1CDE
:101A50001A703B4BDB689A6803218A4301210A43D1
:101A60009A60374BDB68FA1D1278502149420A43CD
:101A7000D2B21A62324BDB681A6801210A431A603B
:101A8000C0462F4BDB681B68DB07DB0FDBB2012B8B
:101A9000F7D02B4BDB689A6803218A439A60284B66
:101AA000DB689A6803218A4301210A439A60244B28
:101AB000DB68BA1D12781209D2B211000F220A4057
:101AC00010210A431A621E4BDB681A6801210A437F
:101AD0001A60C0461A4BDB681B68DB07DB0FDBB202
:101AE000012BF7D0164BDB689A6803218A439A6072
:101AF000134BDB689A6803218A4301210A439A60E9
:101B00000F4BDB68BA1D12780F210A401A620C4B8A
:101B1000DB681A6801210A431A60C046084BDB687B
:101B20001B68DB07DB0FDBB2012BF7D0044BDB6854
:101B30009A6803218A439A60C046BD4602B080BDC0
:101B40001C0A002090B587B000AF04000800110007
:101B5000FB1D221C1A70BB1D021C1A707B1D0A1C67
:101B60001A7000237B6100233B617B1D1B78203BA7
:101B70001B013B6100237B6123E0FB1D1B78DB180D
:101B8000D8B2BB1D1B78DB00DBB25B42DAB27B69EB
:101B9000DBB2D31ADBB27F3BDBB21900FFF750FF99
:101BA0003A697B69D2180F23FB1820498A5C1A70A6
:101BB0000F23FB181B781800FFF710FF7B69013318
:101BC0007B617B69072BD8DD00237B6127E0FB1D50
:101BD0001B78DB18DBB20133D8B2BB1D1B78DB00EE
:101BE000DBB25B42DAB27B69DBB2D31ADBB27F3B9A
:101BF000DBB21900FFF724FF3A697B69D318083379
:101C00001A000F23FB1809498A5C1A700F23FB186E
:101C10001B781800FFF7E2FE7B6901337B617B696B
:101C2000072BD4DDC046BD4607B090BD2C04002074
:101C300080B584B000AF02003960FB1D1A7000232C
:101C4000FB60FB68D9B23B685A1C3A601A78FB1DEE
:101C50001B781800FFF776FFFB680133FB60FB6819
:101C60000F2B04DC3B681B78002BEAD100E0C04658
:101C7000C046BD4604B080BD80B582B000AF002331
:101C80007B6000210020FFF7DBFE00237B6005E086
:101C90000020FFF7A3FE7B6801337B607B68054A69
:101CA0009342F5DD0F20FFF799FEC046BD4602B016
:101CB00080BDC0461F040000002243088B4274D33D
:101CC00003098B425FD3030A8B4244D3030B8B423D
:101CD00028D3030C8B420DD3FF22090212BA030C46
:101CE0008B4202D31212090265D0030B8B4219D327
:101CF00000E0090AC30B8B4201D3CB03C01A524147
:101D0000830B8B4201D38B03C01A5241430B8B428E
:101D100001D34B03C01A5241030B8B4201D30B0377
:101D2000C01A5241C30A8B4201D3CB02C01A52419E
:101D3000830A8B4201D38B02C01A5241430A8B4261
:101D400001D34B02C01A5241030A8B4201D30B024A
:101D5000C01A5241CDD2C3098B4201D3CB01C01A64
:101D6000524183098B4201D38B01C01A524143096E
:101D70008B4201D34B01C01A524103098B4201D35C
:101D80000B01C01A5241C3088B4201D3CB00C01AC9
:101D9000524183088B4201D38B00C01A5241430841
:101DA0008B4201D34B00C01A5241411A00D2014666
:101DB000524110467047FFE701B5002000F006F8D9
:101DC00002BDC0460029F7D076E770477047C0468D
:101DD000F0B5564644465F464D46F0B444024600D0
:101DE000C70F83B08846650A360EBA463DD0FF2E2F
:101DF00022D00023EC00802599469B46ED04254324
:101E00007F3E43465C025800DB0F640A000E984692
:101E100036D0FF2830D080230021E400DB041C43AF
:101E20007F38301A0190484642460843724E80007F
:101E300030587A4013008746002D44D10823994634
:101E4000063B9B46DDE70122FF2000241A40640286
:101E5000C305640AD2071C431443200003B03CBCF2
:101E600090469946A246AB46F0BD002D20D10423F2
:101E70009946033B9B46C4E7002C17D1022102E0A0
:101E8000002C0AD10121321A01924A4643460A43E4
:101E90005A48920082587B409746200000F030FA62
:101EA000431F76309C4040420021BAE70321B8E747
:101EB000280000F025FA431F9D400023763046425B
:101EC00099469B469DE70C239946093B9B4698E71C
:101ED00080240022E403FF20B9E70024C2468B4699
:101EE0005A465346022AAED0032A7DD0012A31D168
:101EF000012200201A400024A9E70122101A1B2801
:101F000056DD1A4000200024A1E78023DB031D4298
:101F10004BD18023DB032B435C02640A3A00FF2091
:101F200095E76D016001854230D2019A0024013AA3
:101F300001921B220127290064006D00002901DBAA
:101F4000A84201D82D1A3C43013A002AF3D16A1E57
:101F500095412C4301987F300028CEDD620704D0E4
:101F60000F222240042A00D00434220103D5244A3F
:101F7000019814408030FE2800DD64E70122A401AE
:101F8000640AC0B21A4062E72C00A9E72D1A1A228F
:101F90000124CFE76B02BCD500248023DB031C4364
:101FA0006402640A4246FF2051E71C42B3D1F4E7C1
:101FB00021002022C140101A8440621E94410C432B
:101FC000620704D00F222240042A00D004346201A8
:101FD00004D5012201201A40002438E70122A4017F
:101FE000640A1A40002032E78023DB031C436402AA
:101FF000640A5246FF202AE73C2400007C240000AB
:10200000FFFFFFF7F0B557464E4645464300E0B4A4
:1020100046028846760A1F0EC40F002F47D0FF2FB6
:1020200025D0002380259A469946F600ED042E43DC
:102030007F3F434642465D02D20F5B006D0A1B0E96
:10204000904640D0FF2B39D080220020ED00D204F2
:1020500015437F3BFB1842465746591C62408C464D
:1020600007430F2F5CD86F49BF00C9598F46002E18
:1020700045D108239A46063B9946DAE742460228AC
:102080002DD0032800D1C3E0012800D0A2E0002514
:1020900000260240D4B27602ED05760A2E43E4070C
:1020A000264330001CBC90469946A246F0BD002E47
:1020B0001AD104239A46033B9946BAE72A00511ED7
:1020C0008A41901CC6E70120002DC3D0280000F0F3
:1020D00017F9431F76309D4043420020BAE70124A0
:1020E000FF2514400026D6E7300000F009F9431F11
:1020F0009E400023763047429A46994699E70C2342
:102100009A46093B994694E780260024F603FF256A
:10211000C1E735004846B2E7350022004846AEE741
:102120002904090C0800370C3604360C2C0C7943B2
:10213000704367437443060C64183619B14203D9DF
:1021400080214902884647440004000C31040918E4
:102150008D01681E8541890E2943350CED19AD01AD
:102160000D43290104D5012369081D4063460D4331
:1021700019007F31002925DD680704D00F20284091
:10218000042800D00435280103D5274980330D40A9
:102190001900FE29A3DC0124AD016E0A1440CDB262
:1021A00079E78020C003064207D0054205D12843C5
:1021B0004602760A4446FF256DE706437602760A14
:1021C000FF2568E70124611A1B2905DD144000255D
:1021D000002660E76346CBE72E002023CE40591A45
:1021E0008D406B1E9D412E43730704D00F23334057
:1021F000042B00D00436730104D5012401251440BA
:10220000002648E70124B601760A1440002542E77B
:1022100080260124F6032E437602760A1440FF2519
:1022200039E7C046BC240000FFFFFFF74302590A0C
:102230004300C20F1B0E00207E2B0EDD9D2B0DDCFC
:10224000802000040143952B0BDC9620C31AD94053
:102250000B005842002A00D118007047034BD018D9
:10226000FBE7963B99400B00F3E7C046FFFFFF7F7B
:1022700070B5002830D0C317C5185D40C40F2800C2
:1022800000F03EF89E231B1A962B0DDC9622D21AE4
:1022900095406A02520AD8B25202C005520AE407B7
:1022A00002432243100070BD992B19DC9922D21AE7
:1022B0009540124A2A40690704D00F210D40042D91
:1022C00000D00432510103D50C4B1A409F231B1A36
:1022D0009201520AD8B2DFE7002400200022DBE797
:1022E00005222E00121AB921D6402A00C91A8A40A6
:1022F000551EAA4135001543DBE7C046FFFFFFFB33
:102300001C2101231B04984201D3000C10391B0A25
:10231000984201D3000A08391B09984201D30009E9
:10232000043902A2105C40187047C0460403020240
:10233000010101010000000000000000416E676B18
:10234000612031009C0E0000BC0E0000E60E000073
:10235000F60E0000120F00003C0F00004A0F0000B4
:102360004A0F0000880F0000A20F0000BE0F0000FF
:10237000CC0F0000E80F0000041000001410000053
:1023800022100000481000005610000066100000E7
:102390008210000092100000A0100000AE1000009B
:1023A000D4100000C8100000C8100000C8100000C1
:1023B000C8100000C8100000C8100000BC100000C9
:1023C000EC100000F81000001011000020110000B7
:1023D0003C1100005811000074110000921100001F
:1023E000AE110000CA110000E6110000E611000065
:1023F000E6110000E6110000E6110000E611000001
:10240000C2120000D21200000E1300007813000068
:10241000DA130000D2120000D21200000E130000E6
:102420000E1300007813000078130000DA13000088
:10243000DA1300004814000014140000221F0000EA
:10244000461E0000041F0000DC1E0000041F0000E8
:10245000D01E0000041F0000DC1E0000461E00000D
:10246000461E0000D01E0000DC1E0000881F000079
:10247000881F0000881F00000A1F0000461E000081
:10248000461E0000F01E0000DA1E0000F01E0000D4
:10249000D01E0000F01E0000DA1E0000461E0000E4
:1024A000461E0000D01E0000DA1E0000881F00003B
:1024B000881F0000881F0000941F000020210000DA
:1024C0007E2000007E2000007C2000001221000001
:1024D00012210000082100007C20000012210000D1
:1024E00008210000122100007C20000018210000BB
:0C24F0001821000018210000A2210000AB
:1024FC000080510116000000001BB7000080000096
:10250C0000805101102700000080510100000340A1
:10251C000040034000001340004013400000000046
:10252C00000000000000000000000000000000009F
:10253C0000000080404020F800000000804020187F
:10254C00E00080406000000000000000000000007F
:10255C00000000000000000000000000000000006F
:10256C00000000000000001800200004063A0C02D5
:10257C00421100C0800002030202F1010000804100
:10258C00F1000002038082020000121B2320404055
:10259C00800000008000000000000000000000002F
:1025AC000000808C98E0000242C0022880064C009B
:1025BC002821001194F4202020201112214118E62A
:1025CC0091201070C18521280840822220A0200073
:1025DC0008304483010000000000000000000000EF
:1025EC000000C0211C001090181410000000000006
:1025FC0000000000010000000000000000000000CE
:10260C00010200000040000000000000002428C966
:10261C008800083045468280000000000000000061
:10262C000003426159C001640040020140202A2588
:10263C00408000000000000000000000002C1B0087
:10264C00000000884020250420000202024081295D
:10265C00720C0030D23901000000000000000000B4
:10266C0000000000024F187060E4382004142404A9
:10267C00060C050326140C00078640020403040410
:10268C000E0A011111010101000000001CBCF80927
:10269C00200E0407000000000000000000000000F5
:1026AC00000000000000020810624698B8C08000CC
:1026BC000000080808000000000040404000000036
:1026CC000808000404020281414050EEE3F1F0F8E6
:1026DC000C030000000000000000000000000000DF
:1026EC0000000000000000000000000000000001DD
:1026FC00010202040404080808080808080808086D
:10270C000804040002020100000000131F190F0C42
:10271C0000000000000000000000000000000000AD
:10272C00000000000000000000000000000000009D
:10273C00000000000000000000000000000000008D
:10274C00000000000000000000000000000000007D
:10275C00000000000000000000000000000000006D
:10276C00000000000000000000000000000000005D
:10277C008080400020001010000008080808282065
:10278C0000105000A04000000000000000000000FD
:10279C00000000000000000000000000000000002D
:1027AC0000000000000000000000008064582C5263
:1027BC009183B0202420000808080808001003109A
:1027CC00020018404031F230224410C000000000DA
:1027DC0000000000000000000000000000000000ED
:1027EC000000000000802008040A8D281A0901004E
:1027FC000000004000984410040100020860060824
:10280C001040008000E000000102000449080008AC
:10281C00104000000000000000000000000000005C
:10282C0000000000007F00006209A7000000803C4F
:10283C00C08C2100108F80001000000000000300ED
:10284C001000939514204198C000000024374400D8
:10285C0000003F000000000000000000000000002D
:10286C00000000000000030C102644843C00080CFF
:10287C00E000046828292120202000080000002006
:10288C0020202120802004C09B00443A824020104C
:10289C000401000000000000000000000000000027
:1028AC000000000000000000000000000001010317
:1028BC0002010204050208040800080000080000D8
:1028CC0004080205040401020201010000000000DA
:1028DC0000000000000000000000000000000000EC
:1028EC0000000000000000000000000000000000DC
:1028FC0000000000000000000000000000000000CC
:10290C0000000000000000000000000000000000BB
:10291C0000000000000000000000000000000000AB
:10292C00000000000000000000000000F0000000AB
:10293C0000000000CF0000000000000000000000BC
:10294C0000000000F00000F000000000000000C0DB
:10295C0030C03000C839CF390F090100E01010F831
:10296C0010106000304142FF42443800C02010E09B
:10297C0020E0180001C2310C7388443800E01010BC
:10298C00E00000007885828D70A29E42000000005D
:10299C0000000000F000000000000000C03008043F
:1029AC00000000001F60800000000000040830C020
:1029BC00000000000080601F00000000000000000C
:1029CC00000000004428FE284400000000000080A5
:1029DC0000000000080808FF0808080000000000BC
:1029EC0000000000B07000000000000000000000BB
:1029FC0000000000808080800000000000000000CB
:102A0C0000000000C0C0000000000000000080704A
:102A1C0000000000E01C030000000000C0201010AB
:102A2C0020C000003F408080403F000020F00000AC
:102A3C000000000080FF80000000000060101010FB
:102A4C0020C00000C0A0908886C10000201010108B
:102A5C00E000000080808283443800000000806029
:102A6C00F000000018161110FF10000000F01010FC
:102A7C001010000080818181423C000080402010B9
:102A8C00101000003F428181423C00007010101079
:102A9C00907000000000E01C03000000C02010102B
:102AAC0020C000003845828245380000C02010103C
:102ABC0020C0000083848848241F00000000000010
:102ACC0000000000C3C3000000000000C0C00000F4
:102ADC0000000000B07000000000000000000000CA
:102AEC000000000010282844448200000000000070
:102AFC00000000008888888888888888000000008A
:102B0C00000000008244442828100000E01010103F
:102B1C0020C000000000D80601000000C02010906A
:102B2C009010A0C03F408F90908F505F000080703D
:102B3C008000000080F08F088FF0800010F01010E3
:102B4C001020C00080FF828282453800C020101007
:102B5C00102070003F4080808080400010F01010EA
:102B6C001060800080FF808080601F0010F01010CB
:102B7C001010700080FF82828287E00010F010102D
:102B8C001010700080FF820202070000C02010109D
:102B9C00207000003F408080847C040010F0100006
:102BAC0010F0100080FF820282FF800010F01000F5
:102BBC000000000080FF800000000000000010F00A
:102BCC00100000004080807F0000000010F010809A
:102BDC005030100080FF830CB0C0800010F010004B
:102BEC000000000080FF808080C0200010F080007A
:102BFC0080F0100080FF833C83FF800010F0C00049
:102C0C0010F0100080FF800F30FF0000806010106B
:102C1C00106080001F60808080601F0010F010101A
:102C2C001020C00080FF840404020100E01804049A
:102C3C000418E000071820206098870010F010108E
:102C4C001020C00080FF840C34C28100C020101002
:102C5C0010207000E041828284483000301010F067
:102C6C0010103000000080FF8000000010F01000F9
:102C7C0010F01000007F8080807F000010F01000AA
:102C8C0010F0100000011EE01E01000010F010C03A
:102C9C0010F01000000FF00FF00F000010709000FB
:102CAC009070100080E0990699E080001070900000
:102CBC0090701000000083FC830000007010101056
:102CCC0010D03000C0B088868180E000FC04040085
:102CDC0000000000FF8080000000000070800000F9
:102CEC000000000000031CE0000000000404FC00D5
:102CFC00000000008080FF000000000000000000C9
:102D0C0000000000806018061860800000000000C1
:102D1C0000000000808080808080808000000000A7
:102D2C000000000020604080000000000000000057
:102D3C000000000066918949FE80000010F0000040
:102D4C0000000000007F8181423C00000000000078
:102D5C00000000003C428181814200000000001014
:102D6C00F00000003C4281817F80000000000000E8
:102D7C00000000003C4A89898A4C00000000E010E9
:102D8C00102000000181FF810100000080404040C4
:102D9C008040000053ACA4A4A340000010F000003D
:102DAC000000000080FF0101FE80000000B0000068
:102DBC000000000081FF800000000000000080CCBB
:102DCC00000000004080807F0000000010F0000038
:102DDC000000000080FF9825C381000010F0000067
:102DEC000000000080FF80000000000000000000D8
:102DFC000000000081FE01FE01FE800000000000CA
:102E0C000000000081FE0101FE80000000000000B7
:102E1C00000000003C428181423C00004080404068
:102E2C008000000080FFA020100F000000804040B8
:102E3C00804000000F1020A0FF8000000000000068
:102E4C000000000081FF8201010000000000000072
:102E5C0000000000E6498991926700000000C00064
:102E6C000000000001017F81814000000000000093
:102E7C0000000000017F80817F80000000000000C6
:102E8C0000000000010739C03907010000000000F4
:102E9C0000000000011FE11CE11F01000000000008
:102EAC000000000081E71818E781000040C04000D6
:102EBC0040C0400080814638060100000000000040
:102ECC0000000000C3A1918985C3000000F0080038
:102EDC0000000000027D800000000000F0000000F7
:102EEC0000000000FF0000000000000008F00000DF
:102EFC0000000000807D02000000000000000000C7
:102F0C0000000000C0202060C080806000000340F2
:0C2F1C0000401340000013400040134030
:00000001FF
