:10000000800A0020CD000000310100003101000015
:10001000310100003101000031010000000000004A
:10002000000000000000000000000000310100009E
:10003000310100000000000031010000310100002A
:100040003913000031010000790A0000A10A000004
:10005000CD090000210A000031010000310100003B
:1000600031010000310100003101000031010000C8
:10007000310100003101000031020000A102000046
:100080001103000081030000310100003101000074
:100090003101000031010000310100003101000098
:1000A0003101000031010000310100003101000088
:1000B0006113000031010000310100003101000036
:1000C00080B500AFC046BD4680BDC04680B582B099
:1000D00000AF124B7B60124B3B6007E03B681A1D80
:1000E0003A607A68111D796012681A603A680D4B9F
:1000F0009A42F3D30C4B3B6004E03B681A1D3A6014
:1001000000221A603A68094B9A42F6D3FFF7D8FFEB
:1001100000F014FCC046BD4602B080BD9C1F00002C
:10012000000000201006002010060020800600209D
:1001300080B500AFFEE7C04680B500AF01220B21BD
:10014000012000F0C1FC01220F21012000F0BCFCC5
:10015000C046BD4680BDC04680B500AF01220E211D
:10016000032000F0B1FCC046BD4680BD80B500AFA5
:1001700001220421022000F0A7FC01220521022017
:1001800000F0A2FC01220621022000F09DFC0122C9
:100190000721022000F098FC01220C21022000F02F
:1001A00093FC01220D21022000F08EFC01220E2181
:1001B000022000F089FC01220F21022000F084FCC3
:1001C000C046BD4680BDC04680B582B000AFFB1DB5
:1001D00003221A700E2000F059FDFB1D1878202311
:1001E0000022012100F004F9FB1D1B7800211800FA
:1001F00000F04AFBFB1D1B780021180000F066FB95
:10020000FB1D1B780121180000F014FBC046BD4601
:1002100002B080BD80B500AFFFF78EFFFFF79CFFF7
:10022000FFF7A4FFFFF7D0FFC046BD4680BDC04624
:1002300080B500AF184B1B68DB03DB0FDBB2012B73
:100240000FD1154A1368802149020B431360134BE9
:100250005B68002B05D0114B5A68104B9B68180047
:1002600090470D4BDB6B1B05DB0FDBB2012B0FD176
:10027000094AD36B802109010B43D363074BDB6829
:10028000002B05D0054BDA68044B1B69180090471A
:10029000C046BD4680BDC046000003401006002099
:1002A00080B500AF184B1B68DB03DB0FDBB2012B03
:1002B0000FD1154A1368802149020B431360134B79
:1002C0009B69002B05D0114B9A69104BDB69180014
:1002D00090470D4BDB6B1B05DB0FDBB2012B0FD106
:1002E000094AD36B802109010B43D363074B1B6A77
:1002F000002B05D0054B1A6A044B5B6A1800904727
:10030000C046BD4680BDC0460040034010060020E8
:1003100080B500AF184B1B68DB03DB0FDBB2012B92
:100320000FD1154A1368802149020B431360134B08
:10033000DB6A002B05D0114BDA6A104B1B6B1800DF
:1003400090470D4BDB6B1B05DB0FDBB2012B0FD195
:10035000094AD36B802109010B43D363074B5B6BC5
:10036000002B05D0054B5A6B044B9B6B1800904734
:10037000C046BD4680BDC0460000134010060020A8
:1003800080B500AF184B1B68DB03DB0FDBB2012B22
:100390000FD1154A1368802149020B431360134B98
:1003A0001B6C002B05D0114B1A6C104B5B6C1800AA
:1003B00090470D4BDB6B1B05DB0FDBB2012B0FD125
:1003C000094AD36B802109010B43D363074B9B6C14
:1003D000002B05D0054B9A6C044BDB6C1800904742
:1003E000C046BD4680BDC0460040134010060020F8
:1003F00090B585B000AF0400080011003B60FB1D04
:10040000221C1A70BB1D021C1A707B1D0A1C1A705C
:10041000FB1D1A78D94913009B009B189B005B5C5D
:10042000002B01D0D64BFFE13B68002B02DD3B687F
:10043000202B01DDD34BF7E1FB1D1B78002B13D1E3
:10044000D14A9368802149010B439360A023DB05C7
:10045000DA68802149010A43DA60A023DB05DA6803
:10046000CA490A40DA6042E0FB1D1B78012B13D118
:10047000C54A9368802189010B439360A023DB0563
:10048000DA68802189010A43DA60A023DB05DA6893
:10049000BF490A40DA602AE0FB1D1B78022B13D10A
:1004A000B94A93688021C9010B439360A023DB05FF
:1004B000DA688021C9010A43DA60A023DB05DA6823
:1004C000B4490A40DA6012E0AF4A93688021090219
:1004D0000B439360A023DB05DA68802109020A43FD
:1004E000DA60A023DB05DA68AB490A40DA608023D2
:1004F0005B02FB6006E0FB685A1EFA60002B01DC21
:10050000A64B91E1FB1D1A78A54B9200D3581B68AE
:10051000DB07DB0FDBB2012BEDD0FB1D1A7897490F
:1005200013009B009B189B0001225A54FB1D1A7854
:10053000924913009B009B189B00CB1804330022A8
:100540001A60FB1D1A788D4913009B009B189B00B5
:10055000CB18083300221A60FB1D1A788749130054
:100560009B009B189B00CB180C3300221A60FB1DCC
:100570001A78824913009B009B189B00CB181033FC
:1005800000221A603B68202B01D100233B60FB1D39
:100590001A78834B9200D3583A68D2B2111C1F22AA
:1005A0000A40D1B21A681F200140C900F8208243D6
:1005B0000A431A60BB1D1B78012B0AD1FB1D1A7858
:1005C000774B9200D3581A688021C9020A431A60F7
:1005D00008E0FB1D1A78724B9200D3581A687149D3
:1005E0000A401A60FB1D1A786D4B9200D3589A6826
:1005F00008210A439A607B1D1B78002B1BD1FB1D31
:100600001A78674B9200D3581A6867490A401A60F3
:10061000FB1D1A78624B9200D3581A6804218A4352
:100620001A60FB1D1A785E4B9200D3581A6802219B
:100630008A431A60F7E07B1D1B78012B1BD1FB1D41
:100640001A78574B9200D3581A6857490A401A60D3
:10065000FB1D1A78524B9200D3581A6804210A43A2
:100660001A60FB1D1A784E4B9200D3581A6802216B
:100670008A431A60D7E07B1D1B78022B1BD1FB1D20
:100680001A78474B9200D3581A6847490A401A60B3
:10069000FB1D1A78424B9200D3581A6804218A43F2
:1006A0001A60FB1D1A783E4B9200D3581A6802213B
:1006B0000A431A60B7E07B1D1B78032B1BD1FB1D7F
:1006C0001A78374B9200D3581A6837490A401A6093
:1006D000FB1D1A78324B9200D3581A6804210A4342
:1006E0001A60FB1D1A782E4B9200D3581A6802210B
:1006F0000A431A6097E07B1D1B78042B1CD1FB1D5D
:100700001A78274B9200D3581A68802109010A43AE
:100710001A60FB1D1A78224B9200D3581A680421E4
:100720008A431A60FB1D1A781D4B9200D3581A6831
:1007300002218A431A6076E07B1D1B78052B35D198
:10074000FB1D1A78164B9200D3581A6880210901B4
:100750000A431A60FB1D1A78114B9200D3581A688D
:1007600004210A431A60FB1D1A780D4B9200D358DE
:100770001A6802218A431A6055E0C046100600201C
:100780000394FFFF0294FFFF00020050FFEFFFFF02
:10079000FFDFFFFFFFBFFFFFFF7FFFFF0494FFFFAF
:1007A00000000020FFFFFBFFFFF7FFFF7B1D1B7812
:1007B000062B1CD1FB1D1A781D4B9200D3581A68CA
:1007C000802109010A431A60FB1D1A78184B920018
:1007D000D3581A6804218A431A60FB1D1A78144BF7
:1007E0009200D3581A6802210A431A601BE0FB1DCD
:1007F0001A780F4B9200D3581A68802109010A43D6
:100800001A60FB1D1A780A4B9200D3581A6804210B
:100810000A431A60FB1D1A78054B9200D3581A68D8
:1008200002210A431A6000231800BD4605B090BD9E
:100830000000002080B582B000AF0200FB1D1A70DE
:10084000BB1D0A1C1A70BB1D1B78002B0AD1FB1D97
:100850001A780B4B9200D3581A688021C9000A43BA
:100860001A6008E0FB1D1A78054B9200D3581A68ED
:1008700004490A401A60C046BD4602B080BDC04669
:1008800000000020FFFBFFFF80B582B000AF020038
:10089000FB1D1A70BB1D0A1C1A70FB1D1A780A4B2F
:1008A0009200D358BA1D127801210A40D1B29A6839
:1008B000012001400901102082430A439A60C0468A
:1008C000BD4602B080BDC0460000002080B582B0A9
:1008D00000AF0200FB1D1A70BB1D0A1C1A70FB1D25
:1008E0001A780A4B9200D358BA1D127801210A4097
:1008F000D1B29A68012001408900042082430A4352
:100900009A60C046BD4602B080BDC04600000020CF
:1009100080B500AF03E00B21012000F08DF90F211D
:10092000012000F063F9031EF5D00B21012000F037
:1009300035F9C0461800BD4680BDC04680B500AF41
:10094000FFF768FC00F022FD00F056FF0E210320A7
:1009500000F072F9164B1B68180001F0BDF9031C7A
:100960008B21C905181C00F067FF031C1149181CD6
:1009700001F07CF8031C181C01F08CF902000E4BEE
:100980001A600E4B1900002000F012FF0C4B1900EA
:10099000012000F00DFF0B4B1900022000F008FFB2
:1009A000094B1900032000F003FFFFF7B1FFD1E767
:1009B0007C06002000409C4578060020A41D000015
:1009C000B01D0000C01D0000D01D000080B582B029
:1009D00000AF0F4B1B6A7B600E4B1B6A3B603B6892
:1009E0000D4A13403B600A4B7A681A62094B3A6819
:1009F0001A620A4B1B68002B05D0084B1B687A68EB
:100A0000396810009847C046BD4602B080BDC04658
:100A10000040005040400050FF3FFFFF60060020B4
:100A200080B584B000AF104B1B6AFB600F4B1B6A94
:100A3000BB600F4B1B6A7B600B4BFA681A620B4B57
:100A4000BA681A620A4B7A681A620A4B1B68002B52
:100A500005D0084B1B68F868B9687A689847C046A3
:100A6000BD4604B080BDC04680400050C04000502C
:100A7000004100506406002080B500AF064B802284
:100A8000D2011A62054B1B68002B02D0034B1B6876
:100A90009847C046BD4680BD4040005068060020D3
:100AA00080B500AF064B802212021A62054B1B680C
:100AB000002B02D0034B1B689847C046BD4680BD43
:100AC000404000506C06002080B584B000AF396013
:100AD0001100FB1D021C1A70BB1D0A1C1A703B681A
:100AE000002B02DB3B68102B01DD2A4B4EE0FB1D87
:100AF0001B789B01284A94466344FB60BB1D1B780E
:100B0000002B07D0BB1D1B78012B03D0BB1D1B780E
:100B1000022B28D1FB68FA68126839684900032063
:100B200088400100C9430A401A60BB1D1B78012B95
:100B30000AD1FB68FA6812683968490001208840C8
:100B400001000A431A601FE0BB1D1B78022B1BD15A
:100B5000FB68FA6812683968490002208840010081
:100B60000A431A6010E0BB1D1B78032B0AD1FB68F7
:100B7000FA681268396849000320884001000A4376
:100B80001A6002E0034B01E0C04600231800BD4696
:100B900004B080BD0189FFFF0040005080B584B0E3
:100BA00000AF02003960FB1D1A703B68002B02DBAE
:100BB0003B68102B01DD0B4B10E0FB1D1B789B01EC
:100BC000094A94466344FB60FB689B6801213A68CC
:100BD00091400A001A43FB689A6000231800BD4642
:100BE00004B080BD0189FFFF0040005080B584B093
:100BF00000AF02003960FB1D1A703B68002B02DB5E
:100C00003B68102B01DD0A4B0EE0FB1D1B789B019E
:100C1000084A94466344FB60FB681A683B68DA4004
:100C200013001A00012313401800BD4604B080BD14
:100C30000189FFFF1040005080B584B000AF020072
:100C40003960FB1D1A703B68002B02DB3B68102BE0
:100C500001DD0C4B11E0FB1D1B789B010A4A9446F9
:100C60006344FB60FB689B6801213A6891400A007D
:100C7000D2431A40FB689A6000231800BD4604B0B6
:100C800080BDC0460189FFFF0040005080B584B0A0
:100C900000AF0200FB1D1A70FB1D1B783D2B00D915
:100CA00025E39A00DA4BD3181B689F46D94B0022E4
:100CB0001A60D94B00221A60D84B00221A60D84B18
:100CC00000221A60D74B00221A6013E3D24BD24A9B
:100CD0001268802149010A431A60D34BD24A126834
:100CE0008021C9000A431A60CF4BCF4A1268CF490E
:100CF0000A401A60FEE2C74BC64A1268C02189004A
:100D00000A431A60F6E2C34BC24A1268C0210901C5
:100D10000A431A60C44BC44A1268C4490A401A60A4
:100D2000E8E2BE4BBD4A12680F210A431A60B94B74
:100D3000B84A1268802109020A431A60BA4BBA4ABB
:100D40001268F82189000A431A60D3E2B44BB44A0E
:100D50001268C0210A431A60CCE2FB1D1B78062BE7
:100D600004D10F23FB1806221A7003E00F23FB188F
:100D70000E221A70A94BA94A12680F217918097816
:100D80000320884001000A431A60A74BA64A126854
:100D9000A6490A401A60ADE2A04BA04A12680F2192
:100DA0000A431A60A04BA04A1268A1490A401A607F
:100DB000A0E2994B984A12688021C9000A431A6040
:100DC000994B994A126801210A431A6092E2934BA7
:100DD000924A126830210A431A608BE28F4B8F4A85
:100DE0001268F02109010A431A608F4B8E4A12687B
:100DF0008E490A401A607DE2874B874A126880213B
:100E000089000A431A60884B874A126802210A4304
:100E10001A606FE2814B814A1268C02189010A433E
:100E20001A6067E27E4B7E4A12680F210A431A60FD
:100E300060E2784B774A126880210A431A607A4B45
:100E4000794A126804210A431A60774B764A12687D
:100E500076490A401A604DE2714B714A126830219E
:100E60000A431A6046E26E4B6D4A1268F02109018E
:100E70000A431A603EE2684B674A12688021C90142
:100E80000A431A60684B684A126808210A431A60CC
:100E900030E2634B624A1268C02189010A431A603A
:100EA00028E25E4B5D4A12680F210A431A6021E274
:100EB0005B4B5B4A126802210A431A601AE2584BE4
:100EC000574A126804210A431A6013E2564B564AE5
:100ED000126804218A431A60534B534A12685349DB
:100EE0000A401A604B4B4B4A1268F91D09781739B2
:100EF0000120884001000A431A60FBE14A4B4A4A3C
:100F0000126808218A431A60434B434A1268F91D4C
:100F1000097811390120884001000A431A60E9E18B
:100F20003D4B3D4A1268802149000A431A60E1E1C5
:100F3000394B394A1268802189000A431A603A4BBA
:100F4000394A126802218A431A60D3E1324B324A8D
:100F500012688021C9000A431A60334B324A126872
:100F600001218A431A60C5E12B4B2B4A126880216C
:100F700009010A431A602C4B2B4A126810218A433C
:100F80001A60B7E1244B244A1268802109020A43FF
:100F90001A60254B244A1268802149040A431A60CA
:100FA000A8E1204B1F4A126820210A431A601E4BF9
:100FB0001D4A1268802189040A431A609AE1164B7F
:100FC000154A126804210A431A60174B164A126820
:100FD0008021C9040A431A608CE10F4B0E4A126843
:100FE00008210A431A60104B0F4A12688021090534
:100FF0000A431A607EE1FB1D1B78282B1AD9FB1DC2
:101000001B782B2B16D80F23FB1800221A7015E023
:10101000E41D000030000050340000503800005043
:101020003C0000504000005050000050FFF7FFFF10
:101030001FFEFFFF0F23FB1804221A70FB1D1B78F5
:10104000292B03D0FB1D1B782C2B11D1AC4BAC4AA8
:1010500012680F21791809780F20884001000A438F
:101060001A60A84BA74A1268A7490A401A602FE0E5
:10107000FB1D1B782A2B03D0FB1D1B782D2B0BD1BE
:101080009F4B9F4A12680F217918097803208840E6
:1010900001000A431A601BE0FB1D1B782B2B04D0B8
:1010A000FB1D1B782E2B00D023E1954B944A126830
:1010B0000F217918097802310320884001000A4382
:1010C0001A60904B8F4A12688F490A401A6010E1EB
:1010D0000FE18E4B8D4A1268C02109020A431A6043
:1010E00008E1FB1D1B78302B07D1894B884A126819
:1010F000C02189010A431A600AE0854B844A1268BC
:10110000F91D097828390120884001000A431A6036
:101110007C4B7C4A12687C490A401A60EAE0FB1D5D
:101120001B78312B13D17A4B794A1268C0210902FE
:101130000A431A60734B734A126876490A401A6070
:10114000704B704A126870490A401A60D2E0704BC6
:101150006F4A1268F91D097828390120884001007A
:101160000A431A60FB1D1B78362B06D1654B654A76
:10117000126865490A401A60BCE0624B614A126815
:1011800064490A401A60B5E0FB1D1B78322B13D16D
:101190005B4B5B4A1268802109010A431A60594B74
:1011A000584A126810210A431A605B4B5A4A126867
:1011B00020210A431A609DE0FB1D1B78382B0DD1BE
:1011C0004F4B4F4A1268802109010A431A604D4B68
:1011D0004C4A126810210A431A608BE04E4B4E4A6B
:1011E000126820210A431A6084E0FB1D1B78332B10
:1011F00006D1494B484A126803210A431A6079E034
:10120000FB1D1B783A2B06D1434B434A1268012140
:101210000A431A606EE0404B3F4A126802210A43BB
:101220001A6067E0364B364A12680C210A431A608E
:10123000344B344A1268C021C9010A431A60344B46
:10124000334A126835490A431A602E4B2D4A1268F8
:10125000FF2109040A431A60FB1D1B783C2B17D1A0
:10126000274B274A12680C218A431A60254B254ACE
:1012700012682B490A401A60254B254A12682949F1
:101280000A401A601F4B1F4A126827490A401A6019
:101290001C4B1C4A1268C02149010A431A60234BA7
:1012A000224A1268802149000A431A60184B184AE2
:1012B0001268C02109010A431A60114B104A1268D2
:1012C000C0210A431A60124B114A1268C0210A4316
:1012D0001A60164B154A126815490A431A60084BE2
:1012E000074A1268C02189010A431A6002E0114BC3
:1012F00001E0C04600231800BD4604B080BDC046D2
:101300003400005050000050FFF7FFFF3C00005039
:1013100030000050FFFDFFFF400000503E70000015
:10132000FF9FFFFFC18FFFFFFFFF00FF380000504E
:10133000C0C000000189FFFF80B500AFA023DB051E
:101340009A6910210A439A61044B1B68002B02D052
:10135000024B1B689847C046BD4680BD7006002002
:1013600080B500AF074A136840210B431360064B5A
:101370001B68002B02D0044B1B689847C046BD4633
:1013800080BDC046000200507406002080B500AF4A
:101390006F4A9368802109020B439360A023DB0509
:1013A000DA68802109020A43DA60A023DB05DA68E3
:1013B00068490A40DA60A023DB05DA6B8021490026
:1013C0000A43DA63A023DB05DA6B802189000A4334
:1013D000DA63A023DB05DA6B802109010A43DA63B3
:1013E0005D4BDB681A68802109010A431A605A4B79
:1013F000DB681A68F8218A4348210A431A60564B71
:10140000DB681A6804210A431A60534BDB685A6888
:10141000120C120403210A435A604F4BDB689A688E
:1014200003218A4301210A439A604B4BDB68EB227C
:101430001A62494BDB681A6801210A431A60C046E8
:10144000454BDB681B68DB07DB0FDBB2012BF7D0FA
:10145000414BDB689A6803218A439A603E4BDB6804
:101460009A6803218A4301210A439A603A4BDB6858
:1014700081221A62384BDB681A6801210A431A601C
:10148000C046354BDB681B68DB07DB0FDBB2012B8B
:10149000F7D0314BDB68A0221A622F4BDB681A6849
:1014A00001210A431A60C0462B4BDB681B68DB072F
:1014B000DB0FDBB2012BF7D0274BDB689A680321E7
:1014C0008A439A60244BDB689A6803218A4301218E
:1014D0000A439A60204BDB68C0221A621E4BDB680D
:1014E0001A6801210A431A60C0461B4BDB681B685F
:1014F000DB07DB0FDBB2012BF7D0174BDB689A68F9
:1015000003218A439A60144BDB689A6803218A435B
:1015100001210A439A60104BDB68AF221A620E4B1E
:10152000DB681A6801210A431A60C0460A4BDB686F
:101530001B68DB07DB0FDBB2012BF7D0064BDB6848
:101540009A6803218A439A60C046BD4680BDC04662
:1015500000020050FF7FFFFF0006002080B582B030
:1015600000AF0200FB1D1A70144BDB689A68032160
:101570008A4301210A439A60104BDB68FA1D1278F6
:10158000802149000A431A620C4BDB681A6801216A
:101590000A431A60C046094BDB681B68DB07DB0F98
:1015A000DBB2012BF7D0054BDB689A6803218A4335
:1015B0009A60C046BD4602B080BDC046000600200D
:1015C00080B582B000AF0200FB1D1A70BB1D0A1C63
:1015D0001A703B4BDB689A6803218A4301210A4356
:1015E0009A60374BDB68FA1D1278502149420A4352
:1015F000D2B21A62324BDB681A6801210A431A60C0
:10160000C0462F4BDB681B68DB07DB0FDBB2012B0F
:10161000F7D02B4BDB689A6803218A439A60284BEA
:10162000DB689A6803218A4301210A439A60244BAC
:10163000DB68BA1D12781209D2B211000F220A40DB
:1016400010210A431A621E4BDB681A6801210A4303
:101650001A60C0461A4BDB681B68DB07DB0FDBB286
:10166000012BF7D0164BDB689A6803218A439A60F6
:10167000134BDB689A6803218A4301210A439A606D
:101680000F4BDB68BA1D12780F210A401A620C4B0F
:10169000DB681A6801210A431A60C046084BDB6800
:1016A0001B68DB07DB0FDBB2012BF7D0044BDB68D9
:1016B0009A6803218A439A60C046BD4602B080BD45
:1016C0000006002090B587B000AF040008001100AC
:1016D000FB1D221C1A70BB1D021C1A707B1D0A1CEC
:1016E0001A7000237B6100233B617B1D1B78203B2C
:1016F0001B013B6100237B6123E0FB1D1B78DB1892
:10170000D8B2BB1D1B78DB00DBB25B42DAB27B696F
:10171000DBB2D31ADBB27F3BDBB21900FFF750FF1D
:101720003A697B69D2180F23FB1820498A5C1A702A
:101730000F23FB181B781800FFF710FF7B6901339C
:101740007B617B69072BD8DD00237B6127E0FB1DD4
:101750001B78DB18DBB20133D8B2BB1D1B78DB0072
:10176000DBB25B42DAB27B69DBB2D31ADBB27F3B1E
:10177000DBB21900FFF724FF3A697B69D3180833FD
:101780001A000F23FB1809498A5C1A700F23FB18F3
:101790001B781800FFF7E2FE7B6901337B617B69F0
:1017A000072BD4DDC046BD4607B090BD1000002019
:1017B00080B584B000AF02003960FB1D1A700023B1
:1017C000FB60FB68D9B23B685A1C3A601A78FB1D73
:1017D0001B781800FFF776FFFB680133FB60FB689E
:1017E0000F2B04DC3B681B78002BEAD100E0C046DD
:1017F000C046BD4604B080BD80B582B000AF0023B6
:101800007B6000210020FFF7DBFE00237B6005E00A
:101810000020FFF7A3FE7B6801337B607B68054AED
:101820009342F5DD0F20FFF799FEC046BD4602B09A
:1018300080BDC0461F040000F0B5564644465F46D2
:101840004D46F0B444024600C70F83B08846650A8F
:10185000360EBA463DD0FF2E22D00023EC00802564
:1018600099469B46ED0425437F3E43465C02580063
:10187000DB0F640A000E984636D0FF2830D0802354
:101880000021E400DB041C437F38301A01904846F5
:1018900042460843724E800030587A401300874613
:1018A000002D44D108239946063B9B46DDE70122E3
:1018B000FF2000241A406402C305640AD2071C43B7
:1018C0001443200003B03CBC90469946A246AB4668
:1018D000F0BD002D20D104239946033B9B46C4E76D
:1018E000002C17D1022102E0002C0AD10121321A6A
:1018F00001924A4643460A435A48920082587B4026
:101900009746200000F030FA431F76309C4040425A
:101910000021BAE70321B8E7280000F025FA431FA9
:101920009D4000237630464299469B469DE70C2316
:101930009946093B9B4698E780240022E403FF2058
:10194000B9E70024C2468B465A465346022AAED017
:10195000032A7DD0012A31D1012200201A4000241F
:10196000A9E70122101A1B2856DD1A400020002486
:10197000A1E78023DB031D424BD18023DB032B43F4
:101980005C02640A3A00FF2095E76D016001854220
:1019900030D2019A0024013A01921B22012729002A
:1019A00064006D00002901DBA84201D82D1A3C43D8
:1019B000013A002AF3D16A1E95412C4301987F30E9
:1019C0000028CEDD620704D00F222240042A00D076
:1019D0000434220103D5244A019814408030FE28A3
:1019E00000DD64E70122A401640AC0B21A4062E784
:1019F0002C00A9E72D1A1A220124CFE76B02BCD5CF
:101A000000248023DB031C436402640A4246FF2057
:101A100051E71C42B3D1F4E721002022C140101A43
:101A20008440621E94410C43620704D00F2222407E
:101A3000042A00D00434620104D5012201201A4096
:101A4000002438E70122A401640A1A40002032E78A
:101A50008023DB031C436402640A5246FF202AE70A
:101A6000DC1E00001C1F0000FFFFFFF7F0B557460B
:101A70004E4645464300E0B446028846760A1F0EAD
:101A8000C40F002F47D0FF2F25D0002380259A4672
:101A90009946F600ED042E437F3F434642465D02E1
:101AA000D20F5B006D0A1B0E904640D0FF2B39D041
:101AB00080220020ED00D20415437F3BFB184246F4
:101AC0005746591C62408C4607430F2F5CD86F491C
:101AD000BF00C9598F46002E45D108239A46063BC0
:101AE0009946DAE7424602282DD0032800D1C3E008
:101AF000012800D0A2E0002500260240D4B27602E0
:101B0000ED05760A2E43E407264330001CBC9046C0
:101B10009946A246F0BD002E1AD104239A46033BF3
:101B20009946BAE72A00511E8A41901CC6E7012057
:101B3000002DC3D0280000F017F9431F76309D40D8
:101B400043420020BAE70124FF2514400026D6E7CF
:101B5000300000F009F9431F9E40002376304742D1
:101B60009A46994699E70C239A46093B994694E789
:101B700080260024F603FF25C1E735004846B2E77A
:101B8000350022004846AEE72904090C0800370C4E
:101B90003604360C2C0C7943704367437443060CAF
:101BA00064183619B14203D9802149028846474456
:101BB0000004000C310409188D01681E8541890E4E
:101BC0002943350CED19AD010D43290104D501233D
:101BD00069081D4063460D4319007F31002925DD4A
:101BE000680704D00F202840042800D004352801BD
:101BF00003D5274980330D401900FE29A3DC0124B9
:101C0000AD016E0A1440CDB279E78020C0030642D0
:101C100007D0054205D128434602760A4446FF25EF
:101C20006DE706437602760AFF2568E70124611A0C
:101C30001B2905DD14400025002660E76346CBE73D
:101C40002E002023CE40591A8D406B1E9D412E43FD
:101C5000730704D00F233340042B00D004367301E4
:101C600004D5012401251440002648E70124B601CB
:101C7000760A1440002542E780260124F6032E430D
:101C80007602760A1440FF2539E7C0465C1F000043
:101C9000FFFFFFF74302590A4300C20F1B0E00204B
:101CA0007E2B0EDD9D2B0DDC802000040143952B47
:101CB0000BDC9620C31AD9400B005842002A00D1F1
:101CC00018007047034BD018FBE7963B99400B0078
:101CD000F3E7C046FFFFFF7F70B5002830D0C31781
:101CE000C5185D40C40F280000F03EF89E231B1A63
:101CF000962B0DDC9622D21A95406A02520AD8B26F
:101D00005202C005520AE40702432243100070BD8C
:101D1000992B19DC9922D21A9540124A2A40690758
:101D200004D00F210D40042D00D00432510103D501
:101D30000C4B1A409F231B1A9201520AD8B2DFE7BC
:101D4000002400200022DBE705222E00121AB92110
:101D5000D6402A00C91A8A40551EAA4135001543AB
:101D6000DBE7C046FFFFFFFB1C2101231B04984259
:101D700001D3000C10391B0A984201D3000A08391C
:101D80001B09984201D30009043902A2105C4018D3
:101D90007047C04604030202010101010000000077
:101DA000000000004B656C6F6D706F6B2058580021
:101DB0005072616B74696B756D20544D00000000AA
:101DC00053697374656D204B6F6D70757465720027
:101DD000556E69762E204469706F6E65676F726FFD
:101DE00000000000AC0C0000CC0C0000F60C000061
:101DF000060D0000220D00004C0D00005A0D0000E1
:101E00005A0D0000980D0000B20D0000CE0D00002C
:101E1000DC0D0000F80D0000140E0000240E000080
:101E2000320E0000580E0000660E0000760E000014
:101E3000920E0000A20E0000B00E0000BE0E0000C8
:101E4000E40E0000D80E0000D80E0000D80E0000EE
:101E5000D80E0000D80E0000D80E0000CC0E0000F6
:101E6000FC0E0000080F0000200F0000300F0000E3
:101E70004C0F0000680F0000840F0000A20F00004C
:101E8000BE0F0000DA0F0000F60F0000F60F000092
:101E9000F60F0000F60F0000F60F0000F60F00002E
:101EA000D2100000E21000001E1100008811000096
:101EB000EA110000E2100000E21000001E11000014
:101EC0001E1100008811000088110000EA110000B6
:101ED000EA11000058120000241200008A190000C4
:101EE000AE1800006C190000441900006C190000C5
:101EF000381900006C19000044190000AE180000E9
:101F0000AE1800003819000044190000F019000054
:101F1000F0190000F019000072190000AE1800005E
:101F2000AE180000581900004219000058190000AE
:101F3000381900005819000042190000AE180000BE
:101F4000AE1800003819000042190000F019000016
:101F5000F0190000F0190000FC190000881B0000B7
:101F6000E61A0000E61A0000E41A00007A1B0000DE
:101F70007A1B0000701B0000E41A00007A1B0000AE
:101F8000701B00007A1B0000E41A0000801B000098
:0C1F9000801B0000801B00000A1C0000E9
:101F9C000000034000400340000013400040134089
:101FAC000000000000000000000000000000000025
:101FBC00F000000000000000CF0000000000000056
:101FCC000000000000000000F00000F00000000025
:101FDC00000000C030C03000C839CF390F090100F3
:101FEC00E01010F810106000304142FF42443800FD
:101FFC00C02010E020E0180001C2310C7388443876
:10200C0000E01010E00000007885828D70A29E42E6
:10201C000000000000000000F000000000000000C4
:10202C00C0300804000000001F60800000000000A9
:10203C00040830C0000000000080601F0000000099
:10204C0000000000000000004428FE2844000000AE
:10205C000000008000000000080808FF08080800C5
:10206C000000000000000000B07000000000000044
:10207C000000000000000000808080800000000054
:10208C000000000000000000C0C0000000000000C4
:10209C000000807000000000E01C03000000000045
:1020AC00C020101020C000003F408080403F000046
:1020BC0020F000000000000080FF80000000000005
:1020CC006010101020C00000C0A0908886C10000D5
:1020DC0020101010E0000000808082834438000043
:1020EC0000008060F000000018161110FF100000B6
:1020FC0000F010101010000080818181423C000023
:10210C0080402010101000003F428181423C0000B2
:10211C0070101010907000000000E01C0300000014
:10212C00C020101020C000003845828245380000C5
:10213C00C020101020C0000083848848241F000099
:10214C000000000000000000C3C3000000000000FD
:10215C00C0C0000000000000B070000000000000D3
:10216C0000000000000000001028284444820000F9
:10217C000000000000000000888888888888888813
:10218C0000000000000000008244442828100000D9
:10219C00E010101020C000000000D8060100000064
:1021AC00C02010909010A0C03F408F90908F505F37
:1021BC00000080708000000080F08F088FF080009D
:1021CC0010F010101020C00080FF82828245380071
:1021DC00C0201010102070003F4080808080400094
:1021EC0010F010101060800080FF808080601F0055
:1021FC0010F010101010700080FF82828287E000B7
:10220C0010F010101010700080FF82020207000006
:10221C00C0201010207000003F408080847C04009F
:10222C0010F0100010F0100080FF820282FF80007E
:10223C0010F010000000000080FF80000000000083
:10224C00000010F0100000004080807F00000000B3
:10225C0010F010805030100080FF830CB0C0800054
:10226C0010F010000000000080FF808080C0200073
:10227C0010F0800080F0100080FF833C83FF800012
:10228C0010F0C00010F0100080FF800F30FF000035
:10229C0080601010106080001F60808080601F00C4
:1022AC0010F010101020C00080FF84040402010004
:1022BC00E01804040418E000071820206098870038
:1022CC0010F010101020C00080FF840C34C281006C
:1022DC00C020101010207000E04182828448300031
:1022EC00301010F010103000000080FF8000000053
:1022FC0010F0100010F01000007F8080807F000034
:10230C0010F0100010F0100000011EE01E01000083
:10231C0010F010C010F01000000FF00FF00F0000C4
:10232C00107090009070100080E0990699E0800089
:10233C001070900090701000000083FC830000006F
:10234C007010101010D03000C0B088868180E00072
:10235C00FC04040000000000FF808000000000006E
:10236C00708000000000000000031CE00000000072
:10237C000404FC00000000008080FF00000000004E
:10238C00000000000000000080601806186080004B
:10239C000000000000000000808080808080808031
:1023AC0000000000000000002060408000000000E1
:1023BC00000000000000000066918949FE800000CA
:1023CC0010F0000000000000007F8181423C000002
:1023DC0000000000000000003C42818181420000AE
:1023EC0000000010F00000003C4281817F80000062
:1023FC0000000000000000003C4A89898A4C000063
:10240C000000E010102000000181FF81010000009D
:10241C00804040408040000053ACA4A4A340000086
:10242C0010F000000000000080FF0101FE800000A1
:10243C0000B000000000000081FF800000000000E0
:10244C00000080CC000000004080807F0000000075
:10245C0010F000000000000080FF9825C3810000F0
:10246C0010F000000000000080FF80000000000061
:10247C00000000000000000081FE01FE01FE800053
:10248C00000000000000000081FE0101FE80000041
:10249C0000000000000000003C428181423C000032
:1024AC00408040408000000080FFA020100F000002
:1024BC0000804040804000000F1020A0FF800000F2
:1024CC00000000000000000081FF820101000000FC
:1024DC000000000000000000E649899192670000AE
:1024EC000000C0000000000001017F81814000005D
:1024FC000000000000000000017F80817F80000050
:10250C000000000000000000010739C0390701007D
:10251C000000000000000000011FE11CE11F010091
:10252C00000000000000000081E71818E78100009F
:10253C0040C0400040C04000808146380601000089
:10254C000000000000000000C3A1918985C30000B9
:10255C0000F0080000000000027D80000000000078
:10256C00F000000000000000FF0000000000000070
:10257C0008F0000000000000807D02000000000058
:10258C000000000000000000C0202060C0808060BF
:10259C000000034000401340000013400040134073
:00000001FF
